AFLY014n 04141
HFDTE230515
HFFXA010
HFPLTPILOT:Simon Blake     
HFGTYGLIDERTYPE:Ozone Delta 2   
HFGIDGLIDERID:not-set         
HFDTM100GPSDATUM:WGS84
HFRFWFIRMWAREVERSION: 1.3.07  Eng
HFRHWHARDWAREVERSION:1.00
HFFTYFRTYPE:Brauniger,IQ-Basic GPS
HFGPS:FASTRAX,IT321,20
HFPRSPRESSALTSENSOR:INTERSEMA,MS5401BM,12000
HFTZNUTCOFFSET:  0
I033638FXA3940SIU4143TAS
C230515100324230515010302
C5427822N00259674WTakeoff
C5427686N00300474W00000000000400000000360000StartArea,130515 100024   
C5427553N00309438W00000000000400000000360000TurnArea,230515 100120   
C5432932N00300923W00000000000400000000360000TurnArea,330515 100159   
C5427686N00300474W00000000000400000000360000FinishArea,130515 100024   
C5427447N00301124WLanding
F1159081214151718222425
B1159085427843N00259689WA004890059000108000
F1159381214151718222425
B1159385427842N00259689WA004900058900108000
F1200081214151718222425
B1200085427841N00259688WA004900058700108000
F1200381214151718222425
B1200385427841N00259689WA004900058600108000
F1201081214151718222425
B1201085427841N00259690WA004900058500108000
F1201381214151718222425
B1201385427842N00259690WA004900058500108000
F1202081214151718222425
B1202085427842N00259690WA004890058400108000
F1202381214151718222425
B1202385427842N00259690WA004880058700108000
F12030812141718222425
B1203085427842N00259693WA004880058600107000
F1203381214151718222425
E120338STA
E120338ATS1025.3
LFLYA100596
B1203385427822N00259674WA004980059500108000
B1203415427819N00259670WA005030060000108000
B1203445427816N00259667WA005080060500108000
B1203475427812N00259665WA005130061100108000
B1203505427810N00259659WA005160061500108000
B1203535427822N00259643WA005210061900108000
B1203565427842N00259654WA005230062000108000
B1203595427845N00259685WA005260062000108000
B1204025427836N00259690WA005320062700108000
B1204055427833N00259687WA005380063500108000
F12040812141517222425
B1204085427831N00259681WA005400063800107000
F1204111214151718222425
B1204115427839N00259661WA005450064400108000
B1204145427854N00259653WA005460064600108000
B1204175427875N00259654WA005460064400108000
B1204205427894N00259657WA005470064500108000
B1204235427913N00259662WA005470064500108000
B1204265427932N00259665WA005500064800108000
B1204295427948N00259665WA005470064800108000
B1204325427971N00259661WA005460064600108000
B1204355427993N00259658WA005500064900108000
B1204385428011N00259649WA005570065500108000
B1204415428018N00259637WA005600065900108000
B1204445428013N00259632WA005610066000108000
B1204475428012N00259658WA005640066200108000
B1204505428028N00259672WA005690066800108000
B1204535428041N00259663WA005700066900108000
B1204565428042N00259643WA005730067200108000
B1204595428036N00259637WA005770067700108000
B1205025428029N00259639WA005780067900108000
B1205055428025N00259653WA005780067900108000
B1205085428019N00259667WA005760067800108000
B1205115428010N00259662WA005740067600108000
B1205145428004N00259654WA005730067400108000
B1205175428005N00259640WA005710067200108000
B1205205428020N00259626WA005660066800108000
B1205235428039N00259624WA005650066600108000
B1205265428059N00259625WA005640066300108000
B1205295428076N00259616WA005630066300108000
B1205325428092N00259602WA005600066000108000
B1205355428108N00259586WA005580065800108000
B1205385428127N00259572WA005620066000108000
B1205415428144N00259560WA005660066400108000
B1205445428146N00259542WA005670066400108000
B1205475428141N00259547WA005720067000108000
B1205505428138N00259561WA005730067100108000
B1205535428131N00259573WA005740067300108000
B1205565428127N00259582WA005720067200108000
B1205595428120N00259590WA005680066900108000
B1206025428111N00259596WA005680066900108000
B1206055428101N00259605WA005670066700108000
B1206085428090N00259612WA005680066800108000
B1206115428081N00259613WA005690066900108000
B1206145428076N00259602WA005690067000108000
B1206175428072N00259592WA005650066700108000
B1206205428064N00259596WA005620066300108000
B1206235428056N00259604WA005600066100108000
B1206265428049N00259615WA005570065800108000
B1206295428041N00259629WA005550065600108000
B1206325428032N00259641WA005510065200108000
B1206355428019N00259647WA005520065200108000
B1206385428011N00259653WA005560065600108000
B1206415428005N00259658WA005540065500108000
B1206445427994N00259663WA005510065100108000
B1206475427984N00259666WA005510065200108000
B1206505427974N00259668WA005490064900108000
B1206535427965N00259673WA005480064900108000
B1206565427956N00259677WA005450064600108000
B1206595427946N00259684WA005440064500108000
B1207025427936N00259690WA005410064300108000
B1207055427926N00259690WA005410064200108000
B1207085427919N00259682WA005430064400108000
B1207115427914N00259674WA005460064700108000
B1207145427912N00259665WA005470064800108000
B1207175427908N00259663WA005450064600108000
B1207205427901N00259668WA005430064500108000
B1207235427893N00259672WA005410064300108000
B1207265427883N00259673WA005470064700108000
B1207295427876N00259670WA005450064600108000
B1207325427868N00259664WA005450064700108000
B1207355427862N00259658WA005410064400108000
B1207385427853N00259653WA005400064300108000
F12074112141517182425
B1207415427847N00259651WA005380064000107000
F1207441214151718222425
B1207445427839N00259646WA005360063800108000
B1207475427831N00259644WA005330063500108000
B1207505427823N00259645WA005320063300108000
B1207535427815N00259648WA005280063000108000
B1207565427807N00259648WA005250062600108000
B1207595427799N00259649WA005240062500108000
B1208025427790N00259652WA005220062300108000
B1208055427781N00259658WA005210062200108000
B1208085427772N00259663WA005230062400108000
B1208115427767N00259672WA005250062600108000
B1208145427763N00259673WA005240062500108000
B1208175427758N00259669WA005250062600108000
B1208205427754N00259666WA005250062700108000
B1208235427747N00259666WA005250062600108000
B1208265427738N00259665WA005270062800108000
B1208295427730N00259663WA005310063200108000
B1208325427724N00259664WA005350063700108000
B1208355427722N00259658WA005360063900108000
B1208385427732N00259641WA005320063800108000
B1208415427751N00259668WA005310063600108000
B1208445427746N00259695WA005400064400108000
B1208475427742N00259715WA005430064900108000
B1208505427736N00259730WA005420065000108000
B1208535427730N00259721WA005390064800108000
B1208565427732N00259703WA005350064400108000
B1208595427744N00259686WA005280063700108000
B1209025427765N00259684WA005280063400108000
B1209055427783N00259694WA005280063400108000
B1209085427793N00259725WA005280063100108000
B1209115427785N00259743WA005310063400108000
B1209145427780N00259733WA005300063400108000
B1209175427773N00259731WA005240062900108000
B1209205427764N00259732WA005200062500108000
B1209235427757N00259731WA005170062100108000
B1209265427747N00259730WA005170061900108000
B1209295427740N00259736WA005150061800108000
B1209325427731N00259740WA005090061300108000
B1209355427722N00259738WA005080061100108000
B1209385427715N00259732WA005080060900108000
B1209415427708N00259720WA005110061200108000
F12094412141517222425
B1209445427702N00259712WA005140061600107000
F1209471214151718222425
B1209475427696N00259708WA005160061800108000
B1209505427690N00259706WA005190062200108000
B1209535427683N00259707WA005250062800108000
B1209565427676N00259705WA005320063400108000
F12095912141517182425
B1209595427673N00259697WA005390064100107000
F1210021214151718222425
B1210025427686N00259689WA005460064800108000
B1210055427702N00259716WA005520065300108000
B1210085427697N00259740WA005610066100108000
B1210115427692N00259739WA005720067300108000
B1210145427690N00259731WA005790068100108000
B1210175427702N00259718WA005870069000108000
B1210205427719N00259745WA005960069800108000
F121023121415171822242532
B1210235427711N00259766WA006060070800109000
B1210265427705N00259761WA006190072100109000
B1210295427704N00259757WA006230072900109000
B1210325427718N00259742WA006260073100109000
B1210355427737N00259761WA006340073800109000
B1210385427744N00259788WA006470074900109000
B1210415427747N00259811WA006510075600109000
F1210441214151722242532
B1210445427740N00259819WA006560075900108000
F121047121415171822242532
B1210475427739N00259804WA006600076400109000
B1210505427755N00259792WA006690077200109000
B1210535427773N00259805WA006760077800109000
B1210565427784N00259832WA006820078500109000
B1210595427780N00259851WA006890079100109000
B1211025427774N00259846WA006960079800109000
B1211055427779N00259826WA007050080800109000
B1211085427798N00259824WA007130081500109000
B1211115427812N00259846WA007210082300109000
B1211145427810N00259867WA007300083100109000
B1211175427804N00259867WA007390084000109000
B1211205427802N00259848WA007500085000109000
B1211235427814N00259832WA007590086000109000
B1211265427833N00259838WA007670086800109000
B1211295427849N00259855WA007750087700109000
B1211325427848N00259876WA007850088400109000
B1211355427842N00259880WA007930089300109000
B1211385427837N00259864WA008060090500109000
F1211411214151722242532
B1211415427840N00259851WA008150091500108000
F121144121415171822242532
B1211445427852N00259836WA008210092100109000
B1211475427869N00259850WA008300092900109000
B1211505427872N00259874WA008410094100109000
B1211535427864N00259879WA008510095100109000
B1211565427858N00259867WA008600096000109000
B1211595427866N00259845WA008670096700109000
B1212025427883N00259847WA008710097100109000
B1212055427892N00259872WA008800098000109000
B1212085427888N00259890WA008900099000109000
F1212111214151718222425
B1212115427881N00259894WA008960099700108000
F121214121415171822242532
B1212145427877N00259881WA008980100000109000
B1212175427889N00259859WA009030100300109000
B1212205427907N00259865WA009100101100109000
B1212235427910N00259888WA009190101900109000
B1212265427902N00259894WA009250102600109000
B1212295427899N00259877WA009270102800109000
B1212325427908N00259853WA009310103100109000
B1212355427926N00259838WA009380103800109000
B1212385427943N00259835WA009450104500109000
B1212415427958N00259845WA009490104900109000
B1212445427961N00259868WA009540105400109000
B1212475427952N00259881WA009620106100109000
B1212505427943N00259880WA009670106700109000
B1212535427936N00259863WA009700107100109000
B1212565427946N00259838WA009740107400109000
B1212595427963N00259834WA009810108100109000
B1213025427976N00259846WA009850108600109000
B1213055427977N00259864WA009880108800109000
B1213085427969N00259872WA009940109300109000
B1213115427960N00259860WA009990109800109000
B1213145427956N00259839WA010030110200109000
B1213175427961N00259812WA010070110500109000
B1213205427979N00259796WA010130111200109000
B1213235427992N00259810WA010170111600109000
B1213265427989N00259827WA010230112100109000
B1213295427981N00259823WA010310113000109000
B1213325427976N00259809WA010340113300109000
B1213355427978N00259780WA010400113900109000
B1213385427994N00259760WA010470114600109000
B1213415428012N00259757WA010510115200109000
B1213445428022N00259774WA010540115400109000
B1213475428019N00259789WA010570115700109000
B1213505428011N00259798WA010610116100109000
B1213535428001N00259802WA010660116600109000
B1213565427991N00259802WA010720117000109000
B1213595427981N00259794WA010760117500109000
B1214025427983N00259766WA010830118200109000
B1214055427998N00259755WA010890118800109000
B1214085428012N00259764WA010950119400109000
B1214115428016N00259782WA010990119800109000
B1214145428008N00259794WA011020120100109000
B1214175427998N00259785WA011040120400109000
B1214205427994N00259760WA011080120700109000
B1214235428004N00259738WA011110121100109000
B1214265428020N00259723WA011150121600109000
B1214295428037N00259709WA011170121700109000
B1214325428054N00259717WA011210122000109000
B1214355428056N00259733WA011240122400109000
B1214385428052N00259750WA011270122600109000
B1214415428042N00259754WA011280122800109000
B1214445428032N00259740WA011300122900109000
B1214475428030N00259714WA011340123200109000
B1214505428038N00259691WA011390123800109000
B1214535428045N00259667WA011430124200109000
F1214561214171822242532
B1214565428059N00259651WA011430124200108000
F121459121415171822242532
B1214595428078N00259656WA011430124200109000
B1215025428081N00259677WA011440124200109000
B1215055428075N00259689WA011470124600109000
B1215085428067N00259693WA011490124800109000
B1215115428057N00259690WA011560125400109000
B1215145428049N00259683WA011600125900109000
B1215175428053N00259657WA011640126400109000
B1215205428069N00259652WA011690127000109000
B1215235428081N00259668WA011730127300109000
B1215265428084N00259689WA011760127500109000
B1215295428080N00259704WA011760127600109000
B1215325428068N00259713WA011730127400109000
B1215355428054N00259709WA011720127300109000
B1215385428044N00259691WA011680126900109000
F12154106121415171822242532
B1215415428042N00259664WA011670126600110000
B1215445428049N00259642WA011700126900110000
B1215475428062N00259626WA011770127600110000
B1215505428076N00259621WA011800128000110000
B1215535428086N00259639WA011820128100110000
B1215565428080N00259661WA011830128200110000
B1215595428067N00259663WA011870128600110000
B1216025428056N00259653WA011880128700110000
B1216055428049N00259634WA011840128400110000
B1216085428058N00259610WA011840128300110000
B1216115428071N00259602WA011890128800110000
F121614061214171822242532
B1216145428084N00259599WA011940129300109000
F12161706121415171822242532
B1216175428099N00259601WA011980129700110000
B1216205428111N00259614WA012000129900110000
B1216235428108N00259638WA012040130200110000
B1216265428095N00259645WA012080130700110000
B1216295428083N00259654WA012070130700110000
B1216325428070N00259656WA012030130400110000
B1216355428061N00259636WA011970129800110000
B1216385428069N00259612WA011930129300110000
B1216415428082N00259618WA011930129100110000
B1216445428083N00259636WA011910129100110000
B1216475428081N00259655WA011860128600110000
B1216505428074N00259668WA011800128100110000
B1216535428062N00259676WA011740127400110000
B1216565428050N00259680WA011750127400110000
B1216595428040N00259683WA011710127000110000
B1217025428029N00259689WA011690126800110000
B1217055428022N00259695WA011660126600110000
B1217085428011N00259697WA011610126100110000
B1217115427995N00259699WA011560125600110000
B1217145427980N00259705WA011530125300110000
B1217175427968N00259718WA011520125100110000
B1217205427954N00259733WA011560125300110000
B1217235427943N00259752WA011660126300110000
B1217265427937N00259765WA011700126800110000
B1217295427928N00259772WA011750127300110000
B1217325427919N00259765WA011780127600110000
B1217355427913N00259738WA011810128000110000
B1217385427921N00259709WA011800128000110000
F121741121415171822242532
B1217415427935N00259706WA011760127600109000
F12174406121415171822242532
B1217445427936N00259725WA011780127600110000
B1217475427930N00259738WA011840128100110000
B1217505427922N00259749WA011920128900110000
B1217535427919N00259763WA011980129600110000
B1217565427914N00259780WA012050130300110000
B1217595427911N00259798WA012120131000110000
B1218025427909N00259814WA012210131700110000
B1218055427904N00259831WA012240132100110000
B1218085427894N00259840WA012240132200110000
B1218115427880N00259829WA012250132200110000
B1218145427879N00259799WA012290132700110000
B1218175427891N00259783WA012340133000110000
B1218205427904N00259789WA012380133500110000
B1218235427906N00259805WA012400133800110000
B1218265427901N00259818WA012350133400110000
B1218295427894N00259839WA012330133200110000
B1218325427885N00259852WA012310133000110000
B1218355427877N00259872WA012290132800110000
B1218385427866N00259889WA012310132800110000
B1218415427858N00259903WA012330133100110000
B1218445427850N00259916WA012330133100110000
B1218475427843N00259931WA012330133200110000
B1218505427836N00259942WA012310133000110000
B1218535427828N00259956WA012300132900110000
B1218565427820N00259973WA012280132700110000
B1218595427812N00259987WA012300132700110000
B1219025427805N00300000WA012320132800110000
B1219055427799N00300015WA012370133300110000
F121908121415171822242532
B1219085427798N00300025WA012310133100109000
F12191106121415171822242532
B1219115427795N00300039WA012210132200110000
B1219145427793N00300057WA012090131300110000
F1219171214151822242532
B1219175427791N00300078WA011990130200108000
F12192006121415171822242532
B1219205427787N00300102WA011910129300110000
F121923121415171822242532
B1219235427783N00300125WA011850128600109000
F12192406121415171822242532
B1219245427782N00300134WA011830128400110000
B1219255427781N00300143WA011810128200110000
E121926TPC
B1219265427780N00300153WA011800128100110000
B1219275427778N00300161WA011790128000110000
F121928121415171822242532
B1219285427777N00300170WA011770127900109000
B1219295427776N00300179WA011740127600109000
B1219305427776N00300188WA011710127300109000
B1219315427776N00300198WA011670127000109000
F12193206121415171822242532
B1219325427775N00300208WA011650126700110000
B1219355427773N00300234WA011600126200110000
B1219385427772N00300259WA011510125300110000
B1219415427770N00300288WA011480124800110000
B1219445427766N00300315WA011440124500110000
F121947121415171822242532
B1219475427762N00300342WA011390124000109000
F12195006121415171822242532
B1219505427757N00300370WA011360123700110000
B1219535427751N00300397WA011310123300110000
B1219565427745N00300425WA011270122900110000
B1219595427739N00300454WA011230122500110000
B1220025427733N00300480WA011190122100110000
B1220055427727N00300510WA011120121500110000
B1220085427720N00300538WA011070121000110000
B1220115427715N00300567WA011010120400110000
B1220145427711N00300596WA010960119900110000
B1220175427707N00300627WA010910119400110000
B1220205427704N00300658WA010890119100110000
B1220235427702N00300687WA010860118900110000
F122026061214151822242532
B1220265427702N00300721WA010830118600109000
B1220295427702N00300753WA010830118600109000
F122032121415171822242532
B1220325427700N00300785WA010820118600109000
F12203506121415171822242532
B1220355427697N00300815WA010830118600110000
F122038121415171822242532
B1220385427692N00300842WA010830118600109000
F12204106121415171822242532
B1220415427688N00300868WA010830118600110000
B1220445427682N00300892WA010830118700110000
B1220475427675N00300916WA010820118600110000
B1220505427669N00300937WA010820118600110000
B1220535427664N00300958WA010780118300110000
B1220565427660N00300982WA010760118100110000
B1220595427655N00301004WA010720117700110000
B1221025427650N00301028WA010670117300110000
B1221055427644N00301052WA010640117000110000
F122108061214151722242532
B1221085427637N00301076WA010580116500109000
F12211106121415171822242532
B1221115427631N00301100WA010520115800110000
B1221145427625N00301127WA010480115400110000
F122117061214151722242532
B1221175427619N00301152WA010470115200109000
B1221205427613N00301175WA010410114700109000
F122123121415171822242532
B1221235427609N00301201WA010350114100109000
F12212606121415171822242532
B1221265427603N00301224WA010290113500110000
B1221295427598N00301249WA010210112700110000
F122132061214151722242532
B1221325427591N00301275WA010140112000109000
F12213506121415171822242532
B1221355427585N00301300WA010080111400110000
B1221385427577N00301326WA009990110500110000
B1221415427569N00301357WA009930109800110000
B1221445427565N00301389WA009860109100110000
B1221475427560N00301421WA009800108500110000
B1221505427556N00301453WA009750107900110000
B1221535427553N00301483WA009720107600110000
B1221565427552N00301511WA009670107100110000
B1221595427550N00301543WA009610106600110000
B1222025427551N00301573WA009550106000110000
B1222055427550N00301606WA009490105300110000
B1222085427549N00301637WA009470105100110000
B1222115427547N00301667WA009460104900110000
B1222145427546N00301693WA009450104900110000
B1222175427546N00301718WA009420104600110000
F122220121415171822242532
B1222205427545N00301742WA009380104200109000
B1222235427543N00301768WA009320103700109000
F12222606121415171822242532
B1222265427541N00301794WA009270103300110000
F122229121415171822242532
B1222295427540N00301820WA009200102700109000
F12223206121415171822242532
B1222325427538N00301849WA009140102000110000
F122235121415171822242532
B1222355427536N00301877WA009090101500109000
F12223806121415171822242532
B1222385427533N00301906WA009030100900110000
F122241121415171822242532
B1222415427528N00301938WA008960100100109000
F12224406121415171822242532
B1222445427523N00301972WA008920099700110000
B1222475427517N00302003WA008870099300110000
B1222505427512N00302036WA008840098800110000
B1222535427507N00302067WA008800098400110000
B1222565427504N00302099WA008740097800110000
B1222595427499N00302130WA008690097400110000
B1223025427495N00302164WA008690097200110000
B1223055427491N00302197WA008690097300110000
B1223085427487N00302227WA008650097000110000
B1223115427483N00302259WA008580096300110000
B1223145427477N00302293WA008540095900110000
F1223170612141522242532
B1223175427473N00302322WA008480095400108000
F122320061214151722242532
B1223205427466N00302355WA008390094600109000
B1223235427459N00302389WA008380094200109000
B1223265427451N00302416WA008330093800109000
B1223295427444N00302446WA008270093200109000
B1223325427438N00302473WA008210092600109000
B1223355427432N00302502WA008140092000109000
B1223385427427N00302533WA008090091500109000
B1223415427421N00302560WA008010090800109000
B1223445427416N00302587WA007930089900109000
B1223475427411N00302610WA007850089100109000
B1223505427407N00302634WA007780088400109000
B1223535427403N00302657WA007740088000109000
B1223565427400N00302681WA007710087600109000
B1223595427397N00302704WA007680087300109000
B1224025427393N00302727WA007650087000109000
B1224055427390N00302748WA007610086700109000
B1224085427388N00302768WA007520085900109000
B1224115427384N00302792WA007430085100109000
B1224145427380N00302816WA007330084100109000
B1224175427376N00302842WA007250083200109000
B1224205427373N00302868WA007210082700109000
B1224235427369N00302897WA007210082500109000
B1224265427365N00302924WA007220082600109000
B1224295427361N00302948WA007210082500109000
B1224325427358N00302968WA007240082800109000
B1224355427358N00302980WA007240082800109000
B1224385427357N00302993WA007230082800109000
B1224415427352N00303004WA007240082900109000
B1224445427348N00303015WA007220082800109000
B1224475427345N00303027WA007180082500109000
B1224505427343N00303042WA007130082000109000
B1224535427338N00303054WA007090081600109000
B1224565427332N00303066WA007040081100109000
B1224595427327N00303082WA007020080800109000
B1225025427324N00303099WA006990080600109000
B1225055427320N00303115WA006980080400109000
B1225085427316N00303130WA006930080000109000
B1225115427311N00303151WA006890079600109000
B1225145427305N00303172WA006820079000109000
B1225175427301N00303194WA006770078400109000
B1225205427295N00303214WA006700077700109000
B1225235427291N00303237WA006640077100109000
B1225265427289N00303260WA006570076400109000
B1225295427290N00303285WA006520075900109000
B1225325427291N00303309WA006430075100109000
B1225355427291N00303334WA006340074400109000
B1225385427289N00303356WA006260073600109000
B1225415427287N00303380WA006190072700109000
B1225445427285N00303405WA006150072300109000
B1225475427281N00303425WA006070071600109000
B1225505427277N00303449WA006010071000109000
F1225530612141522242532
B1225535427271N00303469WA005940070300108000
F122556061214151722242532
B1225565427267N00303496WA005910069900109000
F1225591214151722242532
B1225595427265N00303518WA005870069500108000
F122602061214151722242532
B1226025427264N00303539WA005790068800109000
B1226055427265N00303567WA005770068300109000
B1226085427266N00303592WA005770068300109000
B1226115427268N00303622WA005790068500109000
B1226145427267N00303647WA005870069200109000
B1226175427271N00303663WA005900069700109000
B1226205427267N00303676WA005900069800109000
B1226235427260N00303665WA005940070100109000
B1226265427266N00303639WA006000070700109000
B1226295427283N00303629WA006050071200109000
B1226325427298N00303643WA006070071500109000
B1226355427297N00303662WA006080071600109000
B1226385427288N00303659WA006110071800109000
B1226415427285N00303637WA006130072000109000
B1226445427299N00303614WA006180072400109000
B1226475427315N00303609WA006230072900109000
B1226505427328N00303624WA006280073400109000
B1226535427331N00303640WA006310073800109000
B1226565427325N00303648WA006330074000109000
B1226595427319N00303634WA006370074400109000
B1227025427330N00303610WA006400074600109000
B1227055427349N00303611WA006460075000109000
B1227085427356N00303630WA006500075500109000
B1227115427351N00303641WA006530075800109000
B1227145427345N00303629WA006570076200109000
B1227175427351N00303604WA006600076600109000
B1227205427367N00303585WA006620076700109000
B1227235427384N00303592WA006650077000109000
B1227265427387N00303609WA006680077300109000
B1227295427380N00303612WA006720077600109000
B1227325427375N00303593WA006770078100109000
B1227355427381N00303566WA006790078400109000
B1227385427399N00303551WA006790078500109000
B1227415427414N00303562WA006800078500109000
B1227445427418N00303578WA006820078700109000
B1227475427414N00303590WA006850079000109000
B1227505427408N00303595WA006880079300109000
B1227535427399N00303599WA006970080100109000
B1227565427391N00303600WA007040080800109000
B1227595427385N00303589WA007050081000109000
B1228025427392N00303559WA007050081000109000
B1228055427406N00303566WA007070081100109000
F1228080612141517222425
B1228085427402N00303577WA007120081600108000
F122811061214151722242532
B1228115427392N00303574WA007160082000109000
B1228145427384N00303579WA007190082300109000
B1228175427378N00303587WA007200082600109000
B1228205427373N00303597WA007250082900109000
B1228235427373N00303609WA007300083400109000
B1228265427372N00303618WA007320083700109000
B1228295427362N00303612WA007350084100109000
B1228325427363N00303580WA007340083900109000
F1228351214151722242532
B1228355427379N00303565WA007320083700108000
F122838061214151722242532
B1228385427389N00303577WA007340083800109000
B1228415427387N00303592WA007410084500109000
B1228445427382N00303601WA007450085000109000
B1228475427379N00303614WA007500085400109000
B1228505427372N00303624WA007550085900109000
B1228535427363N00303623WA007580086200109000
B1228565427355N00303607WA007580086300109000
B1228595427358N00303575WA007570086100109000
B1229025427376N00303566WA007520085600109000
B1229055427380N00303585WA007500085400109000
B1229085427371N00303587WA007520085700109000
B1229115427361N00303586WA007530085800109000
B1229145427351N00303583WA007530085800109000
B1229175427344N00303591WA007490085600109000
B1229205427339N00303604WA007430085100109000
B1229235427331N00303606WA007360084300109000
B1229265427323N00303595WA007330083900109000
B1229295427322N00303575WA007280083500109000
B1229325427317N00303566WA007220082900109000
B1229355427313N00303584WA007190082600109000
B1229385427316N00303605WA007140082200109000
B1229415427318N00303631WA007100081700109000
B1229445427318N00303656WA007080081500109000
B1229475427315N00303678WA007050081100109000
B1229505427313N00303701WA007030080900109000
B1229535427310N00303721WA007010080700109000
B1229565427306N00303741WA006990080500109000
B1229595427303N00303760WA006970080300109000
B1230025427305N00303782WA006940080000109000
B1230055427308N00303806WA006930079800109000
B1230085427308N00303829WA006950079900109000
B1230115427309N00303848WA007010080400109000
B1230145427309N00303861WA007030080800109000
B1230175427304N00303856WA007020080700109000
B1230205427312N00303829WA007040080900109000
B1230235427333N00303826WA007080081300109000
B1230265427349N00303837WA007120081700109000
B1230295427357N00303855WA007120081700109000
B1230325427351N00303858WA007130081800109000
B1230355427355N00303835WA007170082300109000
B1230385427365N00303814WA007190082600109000
B1230415427385N00303806WA007190082500109000
B1230445427400N00303821WA007230082900109000
F1230470614151722242532
B1230475427407N00303841WA007240083000108000
F123050061214151722242532
B1230505427408N00303858WA007260083200109000
B1230535427404N00303866WA007290083500109000
B1230565427397N00303866WA007350084000109000
B1230595427390N00303866WA007420084700109000
B1231025427387N00303853WA007450085000109000
B1231055427404N00303837WA007450085000109000
B1231085427416N00303862WA007440085000109000
B1231115427407N00303866WA007500085700109000
F1231140612141517222425
B1231145427403N00303854WA007530086100108000
F123117061214151722242532
B1231175427397N00303843WA007580086400109000
B1231205427390N00303844WA007610086800109000
B1231235427383N00303847WA007640087000109000
B1231265427379N00303859WA007650087100109000
B1231295427377N00303872WA007670087300109000
B1231325427387N00303886WA007690087400109000
B1231355427404N00303885WA007700087500109000
B1231385427417N00303863WA007720087700109000
B1231415427415N00303840WA007730087800109000
B1231445427406N00303835WA007750087900109000
B1231475427401N00303847WA007800088400109000
B1231505427406N00303862WA007810088600109000
B1231535427420N00303871WA007810088600109000
B1231565427438N00303854WA007830088600109000
B1231595427442N00303826WA007830088700109000
B1232025427434N00303810WA007860088900109000
B1232055427428N00303815WA007890089200109000
B1232085427427N00303827WA007920089600109000
B1232115427426N00303841WA007950089900109000
B1232145427424N00303853WA007980090200109000
B1232175427422N00303867WA007990090400109000
B1232205427418N00303880WA008020090600109000
B1232235427414N00303894WA008040090900109000
B1232265427407N00303898WA008060091000109000
B1232295427401N00303878WA008080091200109000
B1232325427411N00303849WA008120091600109000
B1232355427430N00303839WA008160092000109000
B1232385427445N00303847WA008170092100109000
B1232415427448N00303868WA008170092100109000
B1232445427438N00303868WA008180092300109000
B1232475427429N00303862WA008210092500109000
B1232505427420N00303858WA008270093000109000
B1232535427412N00303856WA008290093300109000
F1232560612141517222425
B1232565427403N00303860WA008360093800108000
F123259061214151722242532
B1232595427395N00303863WA008430094400109000
B1233025427386N00303857WA008490095100109000
B1233055427391N00303828WA008540095500109000
B1233085427408N00303832WA008590095900109000
B1233115427402N00303839WA008650096400109000
B1233145427407N00303809WA008680096900109000
B1233175427426N00303817WA008740097300109000
B1233205427423N00303830WA008830098300109000
B1233235427418N00303838WA008890099000109000
B1233265427409N00303833WA008950099600109000
B1233295427412N00303804WA008980100000109000
B1233325427430N00303797WA009010100200109000
F1233350612141517222532
B1233355427434N00303817WA009090101000108000
F123338061214151722242532
B1233385427427N00303820WA009170101900109000
B1233415427421N00303826WA009220102400109000
B1233445427417N00303835WA009270102900109000
B1233475427409N00303834WA009250102800109000
B1233505427404N00303805WA009230102600109000
B1233535427417N00303779WA009250102800109000
B1233565427433N00303780WA009290103100109000
B1233595427440N00303793WA009320103400109000
B1234025427438N00303805WA009330103600109000
F1234050612141517222425
B1234055427429N00303794WA009330103500108000
F123408061214151722242532
B1234085427425N00303768WA009340103700109000
B1234115427434N00303740WA009350103700109000
B1234145427451N00303726WA009360103700109000
B1234175427465N00303738WA009390104000109000
B1234205427468N00303754WA009430104400109000
B1234235427468N00303767WA009440104500109000
F1234260612151722242532
B1234265427460N00303768WA009470104800108000
F123429061214151722242532
B1234295427456N00303746WA009480105000109000
B1234325427462N00303717WA009480105000109000
B1234355427477N00303699WA009480105000109000
B1234385427492N00303705WA009490105100109000
B1234415427497N00303720WA009530105400109000
B1234445427496N00303731WA009530105500109000
B1234475427493N00303741WA009520105400109000
B1234505427487N00303750WA009530105500109000
B1234535427484N00303759WA009530105600109000
B1234565427480N00303769WA009520105400109000
B1234595427475N00303784WA009550105700109000
B1235025427468N00303793WA009570105800109000
B1235055427461N00303804WA009590106100109000
B1235085427454N00303819WA009610106300109000
B1235115427446N00303832WA009610106300109000
B1235145427438N00303842WA009590106200109000
B1235175427429N00303849WA009570105900109000
B1235205427420N00303861WA009580105900109000
B1235235427410N00303871WA009610106200109000
B1235265427400N00303878WA009610106100109000
B1235295427389N00303885WA009620106300109000
B1235325427382N00303892WA009610106200109000
B1235355427376N00303901WA009580106000109000
B1235385427371N00303917WA009550105600109000
B1235415427368N00303936WA009520105400109000
B1235445427369N00303958WA009510105300109000
B1235475427374N00303976WA009450104900109000
B1235505427374N00303997WA009350104000109000
B1235535427371N00304020WA009240102900109000
B1235565427367N00304049WA009170102100109000
B1235595427361N00304071WA009110101500109000
B1236025427353N00304095WA009050100700109000
B1236055427342N00304115WA009030100500109000
B1236085427330N00304138WA009010100200109000
B1236115427319N00304147WA009010100300109000
B1236145427311N00304157WA008960099700109000
B1236175427299N00304166WA008960099600109000
B1236205427290N00304179WA008960099700109000
B1236235427283N00304197WA008940099600109000
B1236265427277N00304216WA008860098900109000
B1236295427273N00304240WA008750098000109000
B1236325427268N00304262WA008610096700109000
B1236355427263N00304290WA008490095400109000
B1236385427260N00304316WA008380094400109000
B1236415427254N00304349WA008250092900109000
B1236445427249N00304384WA008210092400109000
B1236475427244N00304414WA008110091500109000
B1236505427239N00304451WA008040090700109000
B1236535427233N00304483WA008010090300109000
B1236565427227N00304513WA007960089900109000
B1236595427222N00304545WA007930089500109000
B1237025427217N00304576WA007930089400109000
B1237055427213N00304607WA007990089800109000
B1237085427208N00304634WA008080090600109000
B1237115427206N00304654WA008110091100109000
B1237145427200N00304670WA008120091200109000
B1237175427190N00304659WA008130091300109000
B1237205427196N00304637WA008140091400109000
B1237235427210N00304631WA008170091600109000
B1237265427224N00304632WA008230092200109000
B1237295427238N00304639WA008270092700109000
B1237325427244N00304661WA008300092900109000
B1237355427234N00304675WA008320093200109000
B1237385427228N00304658WA008330093300109000
B1237415427239N00304639WA008380093700109000
B1237445427252N00304635WA008450094400109000
B1237475427264N00304631WA008510095000109000
B1237505427275N00304649WA008550095500109000
B1237535427267N00304666WA008560095500109000
B1237565427260N00304645WA008590095800109000
B1237595427274N00304635WA008690097000109000
B1238025427285N00304634WA008730097500109000
B1238055427300N00304646WA008750097800109000
B1238085427299N00304674WA008750097800109000
B1238115427288N00304687WA008740097700109000
B1238145427276N00304675WA008730097600109000
B1238175427278N00304652WA008740097700109000
B1238205427291N00304638WA008790098100109000
B1238235427299N00304624WA008850098700109000
B1238265427304N00304608WA008880099000109000
B1238295427311N00304591WA008890099100109000
B1238325427327N00304590WA008890099100109000
B1238355427336N00304612WA008880099000109000
B1238385427335N00304639WA008870098900109000
B1238415427327N00304665WA008870098900109000
B1238445427317N00304685WA008850098700109000
B1238475427306N00304705WA008820098300109000
B1238505427295N00304725WA008800098300109000
B1238535427285N00304745WA008730097600109000
B1238565427276N00304768WA008670097000109000
B1238595427268N00304789WA008580096200109000
B1239025427259N00304810WA008530095600109000
B1239055427250N00304834WA008480095000109000
B1239085427241N00304862WA008480094900109000
F1239110612141722242532
B1239115427236N00304893WA008460094700108000
B1239145427231N00304927WA008450094600108000
B1239175427227N00304959WA008440094500108000
B1239205427224N00304990WA008360094000108000
F12392306121422242532
B1239235427220N00305025WA008310093600107000
F1239260612141722242532
B1239265427218N00305057WA008240092800108000
B1239295427215N00305093WA008180092200108000
B1239325427212N00305124WA008140091700108000
B1239355427208N00305156WA008130091400108000
F12393806121422242532
B1239385427206N00305186WA008100091200107000
F1239410612141722242532
B1239415427204N00305220WA008050090700108000
B1239445427202N00305255WA008060090700108000
B1239475427199N00305286WA008030090500108000
F12395006121422242532
B1239505427196N00305320WA008030090400107000
B1239535427192N00305353WA008030090400107000
F1239560612141722242532
B1239565427188N00305384WA008000090100108000
B1239595427185N00305418WA007970089900108000
F12400206121422242532
B1240025427182N00305449WA007930089500107000
B1240055427179N00305485WA007860088800107000
B1240085427175N00305520WA007810088400107000
F1240110612141722242532
B1240115427171N00305555WA007760087900108000
B1240145427169N00305591WA007730087500108000
B1240175427166N00305624WA007680087000108000
B1240205427167N00305663WA007660086700108000
B1240235427170N00305701WA007630086400108000
F12402612141722242532
B1240265427174N00305739WA007550085800107000
B1240295427180N00305779WA007460085000107000
F1240320612141722242532
B1240325427190N00305816WA007410084300108000
B1240355427196N00305851WA007360083800108000
B1240385427203N00305886WA007290083200108000
F12404112141722242532
B1240415427210N00305921WA007200082400107000
F1240440612141722242532
B1240445427220N00305957WA007150081800108000
B1240475427227N00305988WA007110081400108000
B1240505427237N00306019WA007070081000108000
B1240535427242N00306051WA007040080600108000
B1240565427249N00306081WA007040080500108000
B1240595427250N00306100WA007020080300108000
B1241025427252N00306123WA007060080400108000
B1241055427256N00306140WA007140081100108000
B1241085427262N00306150WA007210082000108000
B1241115427260N00306156WA007250082500108000
B1241145427258N00306132WA007300082900108000
B1241175427276N00306114WA007400084000108000
B1241205427292N00306121WA007490085000108000
B1241235427299N00306134WA007560085800108000
B1241265427295N00306132WA007610086400108000
B1241295427297N00306101WA007660087000208000
B1241325427316N00306087WA007740087800208000
B1241355427328N00306100WA007830088500108000
B1241385427326N00306105WA007880089000208000
B1241415427323N00306084WA007920089500208000
B1241445427337N00306060WA007990090200208000
B1241475427352N00306067WA008040090700108000
B1241505427354N00306081WA008100091200108000
B1241535427348N00306073WA008150091700108000
B1241565427351N00306045WA008200092200108000
B1241595427367N00306031WA008250092600108000
B1242025427376N00306046WA008300093000108000
B1242055427369N00306049WA008390093900108000
B1242085427364N00306045WA008450094600108000
B1242115427360N00306048WA008500095200108000
B1242145427353N00306037WA008520095500108000
B1242175427350N00306009WA008510095400108000
B1242205427366N00305995WA008480095100108000
B1242235427370N00306015WA008500095100108000
B1242265427369N00306028WA008550095600108000
B1242295427368N00306041WA008610096200108000
B1242325427367N00306053WA008680096900108000
B1242355427369N00306069WA008730097500108000
B1242385427366N00306079WA008780098100108000
B1242415427361N00306077WA008800098400108000
B1242445427362N00306047WA008820098600108000
B1242475427380N00306031WA008870099100108000
F12425012141722242532
B1242505427393N00306044WA008920099500107000
F1242530612141722242532
B1242535427395N00306057WA008960099800108000
B1242565427391N00306068WA009010100300108000
B1242595427384N00306073WA009050100700108000
B1243025427378N00306078WA009090101200108000
B1243055427371N00306075WA009100101400108000
B1243085427366N00306051WA009100101400108000
B1243115427378N00306021WA009110101500108000
B1243145427397N00306018WA009130101600108000
B1243175427405N00306032WA009140101800108000
B1243205427404N00306047WA009180102200108000
B1243235427399N00306058WA009220102500108000
B1243265427394N00306068WA009250102800108000
B1243295427387N00306071WA009270103000108000
B1243325427380N00306053WA009270103000108000
B1243355427386N00306021WA009270103000108000
B1243385427403N00306007WA009270103100108000
B1243415427415N00306020WA009280103000108000
B1243445427415N00306033WA009280103000108000
F12434706121422242532
B1243475427409N00306044WA009280103000107000
F1243500612141722242532
B1243505427400N00306055WA009310103200108000
B1243535427389N00306058WA009360103700108000
B1243565427380N00306060WA009400104200108000
B1243595427371N00306058WA009420104400108000
B1244025427362N00306061WA009450104700108000
B1244055427354N00306067WA009470104900108000
B1244085427345N00306070WA009470105100108000
B1244115427334N00306069WA009470105000108000
B1244145427327N00306077WA009480105100108000
B1244175427322N00306091WA009500105300108000
B1244205427319N00306103WA009480105200108000
B1244235427317N00306118WA009470105000108000
B1244265427325N00306130WA009450104900108000
B1244295427338N00306134WA009420104500108000
B1244325427355N00306122WA009430104500108000
B1244355427366N00306097WA009430104600108000
B1244385427368N00306068WA009420104500108000
B1244415427366N00306043WA009400104300108000
B1244445427357N00306025WA009380104000108000
B1244475427347N00306022WA009380104100108000
B1244505427338N00306028WA009350103700108000
B1244535427329N00306041WA009330103500108000
B1244565427322N00306055WA009320103400108000
B1244595427318N00306073WA009290103000108000
B1245025427312N00306092WA009270102900108000
B1245055427306N00306110WA009250102600108000
B1245085427301N00306129WA009210102400108000
B1245115427296N00306151WA009190102100108000
B1245145427295N00306172WA009180102000108000
B1245175427289N00306189WA009130101500108000
B1245205427282N00306208WA009100101100108000
B1245235427278N00306229WA009080100800108000
B1245265427273N00306251WA009080100900108000
B1245295427270N00306270WA009050100600108000
B1245325427270N00306292WA008980099900108000
B1245355427267N00306316WA008950099600108000
B1245385427266N00306336WA008900099100108000
B1245415427266N00306358WA008880098800108000
B1245445427265N00306376WA008830098400108000
B1245475427261N00306397WA008790097900108000
B1245505427258N00306419WA008740097500108000
B1245535427257N00306447WA008750097300108000
B1245565427256N00306472WA008820097900108000
B1245595427259N00306497WA008910098800108000
B1246025427256N00306515WA008970099500108000
B1246055427250N00306504WA008970099800108000
B1246085427269N00306501WA008990099800208000
B1246115427265N00306522WA009040100300208000
B1246145427256N00306522WA009110101200208000
B1246175427246N00306534WA009140101500208000
B1246205427235N00306523WA009120101500208000
B1246235427238N00306490WA009110101300208000
B1246265427256N00306485WA009090101100208000
B1246295427267N00306506WA009120101300208000
B1246325427269N00306528WA009160101700108000
B1246355427266N00306546WA009200102100108000
B1246385427262N00306561WA009190102200108000
B1246415427255N00306579WA009210102400108000
B1246445427252N00306599WA009280103000108000
B1246475427248N00306610WA009300103400108000
B1246505427244N00306625WA009300103400108000
B1246535427244N00306646WA009290103200108000
B1246565427247N00306673WA009330103400108000
B1246595427248N00306696WA009350103600108000
B1247025427245N00306720WA009330103500108000
B1247055427238N00306740WA009320103300108000
B1247085427234N00306762WA009300103100108000
B1247115427231N00306785WA009260102800108000
F12471406121422242532
B1247145427230N00306808WA009210102500107000
F1247170612141722242532
B1247175427230N00306832WA009190102300108000
B1247205427229N00306852WA009150102000108000
B1247235427226N00306875WA009110101500108000
B1247265427227N00306897WA009070101100108000
B1247295427232N00306922WA009040100700108000
B1247325427237N00306946WA008970100100108000
B1247355427242N00306978WA008920099600108000
B1247385427242N00307008WA008910099300108000
B1247415427241N00307039WA008890099100108000
F12474406121422242532
B1247445427240N00307067WA008880099000107000
F12474712141722242532
B1247475427239N00307097WA008870098900107000
F1247500612141722242532
B1247505427239N00307128WA008870098900108000
B1247535427240N00307158WA008880099000108000
B1247565427241N00307186WA008850098900108000
B1247595427242N00307217WA008840098700108000
F12480206121422242532
B1248025427241N00307244WA008800098400107000
F1248050612141722242532
B1248055427239N00307274WA008760097900108000
F12480812141722242532
B1248085427239N00307302WA008720097600107000
F1248110612141722242532
B1248115427239N00307331WA008690097200108000
B1248145427239N00307361WA008680097000108000
B1248175427238N00307388WA008670096800108000
B1248205427241N00307416WA008670096700108000
B1248235427245N00307442WA008630096500108000
B1248265427248N00307474WA008580096000108000
B1248295427250N00307508WA008590095900108000
B1248325427253N00307536WA008560095700108000
B1248355427258N00307567WA008530095400108000
B1248385427263N00307597WA008500095200108000
B1248415427266N00307629WA008500095000108000
F124844061214172224252932
B1248445427271N00307654WA008510095200109000
B1248475427276N00307682WA008500095000109000
B1248505427278N00307714WA008530095400109000
F1248530612172224252932
B1248535427278N00307741WA008480095100108000
F124856061214172224252932
B1248565427280N00307774WA008450094800109000
B1248595427284N00307803WA008420094500109000
B1249025427288N00307835WA008380094100109000
B1249055427292N00307867WA008340093800109000
F1249081214172224252932
B1249085427295N00307899WA008260093100108000
F124911061214172224252932
B1249115427299N00307933WA008220092600109000
F1249141214172224252932
B1249145427302N00307966WA008140091900108000
F124917061214172224252932
B1249175427307N00308000WA008070091100109000
B1249205427311N00308034WA008050090800109000
B1249235427317N00308065WA008040090700109000
B1249265427324N00308092WA008010090400109000
B1249295427332N00308121WA008010090300109000
B1249325427339N00308145WA008010090300109000
B1249355427343N00308174WA007990090200109000
B1249385427346N00308203WA007960090000109000
B1249415427349N00308232WA007910089600109000
B1249445427356N00308259WA007870089100109000
B1249475427365N00308287WA007900089200109000
B1249505427371N00308309WA007920089400109000
B1249535427370N00308331WA007890089300109000
B1249565427371N00308347WA007810088600109000
B1249595427377N00308369WA007780088200109000
B1250025427382N00308387WA007720087800109000
B1250055427386N00308404WA007600086800109000
B1250085427390N00308427WA007510085700109000
B1250115427389N00308451WA007470085300109000
B1250145427390N00308474WA007390084600109000
B1250175427394N00308499WA007360084100109000
B1250205427403N00308517WA007310083700109000
B1250235427413N00308537WA007280083200109000
B1250265427424N00308553WA007250083000109000
B1250295427433N00308569WA007200082500109000
F1250321214172224252932
B1250325427440N00308591WA007170082100108000
F125035061214172224252932
B1250355427449N00308609WA007160082000109000
B1250385427457N00308630WA007150081900109000
B1250415427463N00308647WA007110081700109000
B1250445427468N00308669WA007040081100109000
B1250475427475N00308691WA007010080800109000
F1250501214172224252932
B1250505427479N00308712WA006930080000108000
F125053061214172224252932
B1250535427483N00308738WA006880079500109000
B1250565427484N00308759WA006840079000109000
B1250595427487N00308783WA006790078500109000
B1251025427493N00308804WA006750078200109000
B1251055427500N00308825WA006690077700109000
B1251085427509N00308847WA006660077300109000
B1251115427515N00308868WA006620077000109000
B1251145427520N00308892WA006550076300109000
B1251175427529N00308914WA006510075900109000
B1251205427535N00308937WA006480075500109000
B1251235427547N00308952WA006460075400109000
B1251265427554N00308971WA006440075000109000
B1251295427557N00308995WA006470075200109000
B1251325427553N00309016WA006510075600109000
B1251355427553N00309031WA006520075800109000
B1251385427551N00309048WA006520075700109000
B1251415427549N00309063WA006530075800109000
B1251425427549N00309069WA006530075800109000
E125143TPC
B1251435427548N00309075WA006530075800109000
B1251445427547N00309081WA006540075900109000
B1251455427547N00309087WA006540076000109000
B1251465427546N00309093WA006550076100109000
B1251475427545N00309099WA006570076200109000
F12514802061214172224252932
B1251485427544N00309105WA006580076300110000
B1251495427542N00309110WA006590076400110000
B1251505427540N00309115WA006610076500110000
B1251535427536N00309126WA006640076900110000
B1251565427523N00309123WA006680077200110000
B1251595427519N00309098WA006710077600110000
B1252025427526N00309072WA006720077700110000
B1252055427539N00309064WA006730077700110000
B1252085427542N00309078WA006740077800110000
B1252115427533N00309085WA006780078100110000
B1252145427523N00309081WA006780078300110000
B1252175427514N00309067WA006750078000110000
B1252205427514N00309038WA006710077600110000
B1252235427530N00309028WA006700077400110000
F125226021214172224252932
B1252265427536N00309043WA006710077400109000
F12522902061214172224252932
B1252295427533N00309059WA006730077700110000
B1252325427528N00309075WA006740077700110000
B1252355427522N00309091WA006760077800110000
B1252385427513N00309108WA006790078100110000
B1252415427507N00309125WA006830078500110000
B1252445427502N00309143WA006860078900110000
B1252475427497N00309158WA006870079100110000
B1252505427493N00309171WA006850078900110000
B1252535427491N00309186WA006820078600110000
B1252565427487N00309199WA006760078200110000
B1252595427475N00309191WA006670077200110000
B1253025427477N00309158WA006600076400110000
B1253055427491N00309136WA006590076300110000
B1253085427494N00309105WA006580076100110000
B1253115427491N00309071WA006590076100110000
B1253145427490N00309041WA006600076200110000
B1253175427488N00309012WA006600076200110000
B1253205427484N00308987WA006550075900110000
B1253235427484N00308956WA006560075800110000
B1253265427486N00308933WA006560075900110000
B1253295427489N00308904WA006550075800110000
B1253325427489N00308872WA006540075700110000
B1253355427488N00308840WA006550075800110000
B1253385427487N00308811WA006540075800110000
B1253415427487N00308782WA006510075600110000
B1253445427489N00308749WA006490075400110000
B1253475427489N00308722WA006460075200110000
B1253505427486N00308692WA006380074600110000
B1253535427482N00308660WA006350074300110000
B1253565427480N00308631WA006290073800110000
B1253595427481N00308597WA006240073100110000
B1254025427480N00308566WA006210072800110000
B1254055427479N00308538WA006170072400110000
B1254085427476N00308508WA006130072000110000
B1254115427473N00308479WA006070071400110000
B1254145427469N00308446WA006000070800110000
B1254175427467N00308413WA005950070200110000
B1254205427464N00308378WA005900069700110000
B1254235427465N00308346WA005860069300110000
B1254265427464N00308314WA005800068600110000
B1254295427463N00308283WA005750068100110000
B1254325427461N00308250WA005690067500110000
B1254355427459N00308220WA005630067000110000
B1254385427457N00308187WA005570066200110000
B1254415427453N00308154WA005580066300110000
F125444020612141724252932
B1254445427447N00308124WA005520065800109000
B1254475427441N00308091WA005520065700109000
B1254505427438N00308064WA005470065300109000
B1254535427435N00308032WA005410064700109000
F1254560212141724252932
B1254565427432N00308003WA005340064000108000
F125459020612141724252932
B1254595427429N00307972WA005330063600109000
B1255025427427N00307945WA005330063600109000
B1255055427423N00307919WA005330063700109000
B1255085427419N00307890WA005330063800109000
F12551102061214172224252932
B1255115427415N00307864WA005330063700110000
B1255145427410N00307833WA005350063800110000
B1255175427405N00307807WA005370064100110000
B1255205427399N00307778WA005420064500110000
F125523020612141724252932
B1255235427397N00307753WA005450064900109000
F12552602061214172224252932
B1255265427400N00307725WA005450064900110000
B1255295427396N00307697WA005490065200110000
B1255325427387N00307683WA005530065700110000
B1255355427378N00307674WA005570066100110000
B1255385427371N00307686WA005630066600110000
B1255415427376N00307703WA005690067300110000
B1255445427382N00307718WA005700067500110000
B1255475427398N00307718WA005720067500110000
B1255505427404N00307694WA005750067900110000
B1255535427399N00307675WA005780068200110000
B1255565427388N00307672WA005800068400110000
B1255595427389N00307689WA005800068200110000
B1256025427405N00307677WA005840068500110000
B1256055427408N00307652WA005890069200110000
B1256085427411N00307632WA005880069200110000
B1256115427404N00307614WA005870069100110000
B1256145427391N00307616WA005870069000110000
B1256175427386N00307636WA005890069100110000
B1256205427392N00307654WA005910069300110000
B1256235427402N00307672WA005960069800110000
B1256265427406N00307686WA006040070600110000
B1256295427402N00307696WA006010070500110000
B1256325427391N00307682WA006040070600110000
B1256355427391N00307655WA006110071400110000
F125638020612141724252932
B1256385427390N00307635WA006120071600109000
F12564102061214172224252932
B1256415427396N00307614WA006120071600110000
B1256445427410N00307621WA006100071300110000
B1256475427413N00307644WA006150071700110000
B1256505427409N00307661WA006190072300110000
B1256535427403N00307672WA006180072400110000
B1256565427393N00307664WA006200072500110000
F125659020612141724252932
B1256595427389N00307646WA006230072900109000
F12570202061214172224252932
B1257025427388N00307629WA006210072800110000
B1257055427397N00307613WA006190072600110000
B1257085427410N00307628WA006180072400110000
F125711020612141724252932
B1257115427407N00307653WA006180072400109000
B1257145427396N00307656WA006170072300109000
B1257175427388N00307640WA006170072300109000
B1257205427388N00307619WA006180072300109000
B1257235427393N00307596WA006190072400109000
B1257265427397N00307574WA006210072600109000
B1257295427399N00307549WA006220072700109000
B1257325427400N00307527WA006230072900109000
B1257355427397N00307507WA006230072900109000
B1257385427393N00307488WA006260073100109000
B1257415427389N00307466WA006250073200109000
B1257445427379N00307468WA006180072500109000
B1257475427379N00307492WA006130072000109000
B1257505427395N00307502WA006150071900109000
B1257535427411N00307495WA006240072700109000
B1257565427428N00307484WA006350073800109000
B1257595427439N00307461WA006440074500109000
B1258025427440N00307436WA006540075400109000
B1258055427431N00307429WA006530075500109000
B1258085427427N00307445WA006510075400109000
B1258115427435N00307468WA006500075100109000
B1258145427454N00307480WA006590075700109000
B1258175427469N00307463WA006610076300109000
B1258205427475N00307436WA006640076400109000
B1258235427471N00307418WA006730077400109000
B1258265427467N00307422WA006790078000109000
B1258295427463N00307432WA006830078500109000
B1258325427473N00307454WA006880079000109000
F1258350206121417242532
B1258355427492N00307450WA006920079600108000
F125838020612141724252932
B1258385427504N00307428WA006900079300109000
B1258415427505N00307401WA006870079000109000
B1258445427495N00307406WA006940079600109000
B1258475427493N00307416WA006970080100109000
B1258505427489N00307433WA007000080300109000
B1258535427482N00307447WA007030080700109000
B1258565427472N00307454WA007060081000109000
B1258595427464N00307454WA007070081200109000
B1259025427459N00307445WA007020080800109000
B1259055427464N00307422WA006980080300109000
B1259085427482N00307419WA006990080300109000
B1259115427498N00307431WA007020080500109000
B1259145427510N00307451WA007070081100109000
B1259175427515N00307465WA007060081100109000
B1259205427516N00307484WA007010080600109000
B1259235427510N00307494WA006950080000109000
B1259265427502N00307487WA006920079500109000
B1259295427493N00307475WA006900079400109000
B1259325427484N00307465WA006890079200109000
B1259355427474N00307452WA006910079300109000
B1259385427465N00307441WA006890079200109000
B1259415427454N00307434WA006840078800109000
B1259445427443N00307423WA006830078500109000
B1259475427435N00307415WA006840078600109000
B1259505427427N00307406WA006830078500109000
B1259535427420N00307386WA006860078600109000
B1259565427411N00307370WA006870078900109000
B1259595427398N00307364WA006880079000109000
B1300025427387N00307358WA006860078900109000
B1300055427375N00307352WA006800078400109000
B1300085427364N00307339WA006760077700109000
B1300115427357N00307322WA006790077900109000
B1300145427352N00307314WA006740077500109000
B1300175427345N00307297WA006730077300109000
B1300205427339N00307281WA006690077000109000
B1300235427330N00307265WA006650076700109000
B1300265427322N00307247WA006620076400109000
B1300295427315N00307231WA006570075900109000
B1300325427307N00307213WA006530075500109000
B1300355427299N00307195WA006480075100109000
B1300385427292N00307176WA006440074600109000
B1300415427282N00307158WA006410074400109000
B1300445427275N00307140WA006410074400109000
B1300475427269N00307123WA006360074100109000
B1300505427258N00307104WA006360073800109000
B1300535427248N00307092WA006340073800109000
B1300565427239N00307069WA006360073600109000
B1300595427233N00307048WA006390074100109000
B1301025427230N00307025WA006440074300109000
B1301055427243N00307005WA006410074200109000
B1301085427253N00307020WA006390074300109000
B1301115427240N00307021WA006460074700109000
B1301145427231N00307018WA006500075200109000
B1301175427224N00307021WA006500075300109000
B1301205427215N00307006WA006470074900109000
B1301235427224N00306979WA006440074500109000
B1301265427240N00306983WA006460074800109000
B1301295427241N00307000WA006480075000109000
B1301325427239N00307013WA006490075200109000
B1301355427235N00307024WA006470075000109000
B1301385427227N00307019WA006410074600109000
B1301415427219N00307001WA006390074500109000
B1301445427219N00306975WA006360074100109000
B1301475427214N00306948WA006370074100109000
F1301500206121417252932
B1301505427211N00306926WA006360074000108000
F130153020612141724252932
B1301535427206N00306902WA006380074100109000
B1301565427200N00306889WA006390074200109000
B1301595427192N00306877WA006460074600109000
B1302025427184N00306873WA006500075000109000
B1302055427175N00306881WA006560075600109000
B1302085427181N00306895WA006620076200109000
B1302115427197N00306890WA006670076600109000
B1302145427210N00306866WA006720077300109000
B1302175427212N00306840WA006770077700109000
B1302205427207N00306824WA006800078100109000
B1302235427197N00306818WA006860078600109000
F1302260206121424252932
B1302265427194N00306827WA006920079200108000
F130229020612141724252932
B1302295427198N00306841WA006960079600109000
B1302325427213N00306841WA007020080000109000
B1302355427224N00306817WA007070080700109000
B1302385427224N00306789WA007090080900109000
B1302415427216N00306775WA007140081400109000
B1302445427209N00306777WA007180081900109000
B1302475427205N00306787WA007210082100109000
B1302505427209N00306798WA007260082600109000
B1302535427224N00306795WA007290082900109000
B1302565427234N00306770WA007330083400109000
B1302595427228N00306747WA007370083800109000
B1303025427219N00306747WA007400084000109000
B1303055427218N00306763WA007460084600109000
B1303085427227N00306771WA007500085000109000
B1303115427243N00306760WA007480084800109000
B1303145427251N00306729WA007530085200109000
B1303175427244N00306703WA007580085700109000
B1303205427234N00306686WA007640086300109000
B1303235427221N00306672WA007680086700109000
B1303265427209N00306662WA007740087400109000
B1303295427198N00306648WA007780087900109000
B1303325427187N00306643WA007770087900109000
B1303355427179N00306649WA007760087900109000
B1303385427176N00306658WA007710087500109000
B1303415427184N00306674WA007730087600109000
B1303445427196N00306678WA007770087900109000
B1303475427209N00306683WA007840088300109000
B1303505427217N00306689WA007910089100109000
B1303535427213N00306701WA007960089500109000
B1303565427200N00306687WA008000090100109000
B1303595427206N00306656WA008030090400109000
B1304025427221N00306649WA008070090600109000
B1304055427221N00306660WA008080090900109000
B1304085427209N00306641WA008130091200109000
B1304115427214N00306607WA008160091600109000
B1304145427223N00306579WA008170091800109000
F1304170206121417252932
B1304175427237N00306557WA008140091600108000
F130420020612141724252932
B1304205427255N00306559WA008090091100109000
B1304235427258N00306581WA008060090700109000
B1304265427253N00306598WA008090090900109000
B1304295427248N00306612WA008180091600109000
B1304325427241N00306618WA008230092200109000
B1304355427237N00306621WA008200092300109000
B1304385427227N00306604WA008160091700109000
B1304415427232N00306569WA008220092200109000
B1304445427245N00306554WA008270092800109000
F13044702061214172425293132
B1304475427259N00306542WA008300093100110000
B1304505427271N00306545WA008330093400110000
B1304535427272N00306553WA008360093600110000
B1304565427262N00306544WA008370093700110000
B1304595427260N00306512WA008350093600110000
B1305025427276N00306488WA008350093600110000
B1305055427293N00306484WA008370093600110000
B1305085427308N00306492WA008350093500110000
B1305115427315N00306514WA008400093600110000
B1305145427317N00306527WA008460094400110000
B1305175427318N00306535WA008420094200110000
B1305205427322N00306551WA008420094200110000
B1305235427322N00306563WA008430094300110000
B1305265427312N00306566WA008470094800110000
B1305295427306N00306547WA008460094700110000
B1305325427310N00306512WA008480094800110000
B1305355427327N00306491WA008500095100110000
B1305385427344N00306480WA008490094900110000
B1305415427360N00306478WA008470094800110000
B1305445427374N00306495WA008470094600110000
B1305475427378N00306512WA008490095000110000
B1305505427379N00306529WA008520095200110000
B1305535427380N00306541WA008550095500110000
B1305565427378N00306557WA008610095900110000
B1305595427376N00306567WA008690096800110000
F130602020612141724252931
B1306025427367N00306561WA008720097200109000
F13060502061214172425293132
B1306055427370N00306529WA008750097400110000
B1306085427388N00306520WA008800097900110000
B1306115427392N00306536WA008840098400110000
B1306145427384N00306522WA008880098600110000
B1306175427390N00306489WA008920099000110000
B1306205427407N00306487WA008940099300110000
B1306235427410N00306502WA008970099600110000
B1306265427402N00306490WA009020100100110000
B1306295427406N00306462WA009050100400110000
B1306325427422N00306451WA009050100400110000
B1306355427432N00306463WA009070100500110000
B1306385427432N00306477WA009110101000110000
B1306415427424N00306475WA009150101300110000
B1306445427415N00306459WA009200101800110000
B1306475427413N00306436WA009200102000110000
B1306505427426N00306418WA009190101800110000
B1306535427443N00306421WA009200101800110000
B1306565427454N00306444WA009250102300110000
B1306595427449N00306457WA009290102700110000
B1307025427439N00306451WA009310102700110000
B1307055427435N00306431WA009310102900110000
B1307085427448N00306414WA009340103000110000
B1307115427464N00306416WA009430104000110000
B1307145427476N00306425WA009480104700110000
B1307175427481N00306443WA009490104800110000
B1307205427473N00306454WA009500105000110000
B1307235427464N00306450WA009520105200110000
B1307265427464N00306427WA009550105300110000
B1307295427477N00306408WA009600105800110000
B1307325427493N00306398WA009640106200110000
B1307355427510N00306391WA009690106700110000
B1307385427524N00306386WA009730107200110000
B1307415427540N00306381WA009760107500110000
B1307445427557N00306369WA009810108000110000
B1307475427572N00306363WA009800108000110000
B1307505427588N00306355WA009780107900110000
B1307535427606N00306348WA009750107700110000
B1307565427627N00306339WA009740107400110000
B1307595427647N00306331WA009760107500110000
B1308025427668N00306322WA009750107400110000
B1308055427688N00306319WA009730107200110000
B1308085427710N00306310WA009710107100110000
B1308115427730N00306296WA009700107000110000
B1308145427752N00306282WA009680106700110000
B1308175427774N00306272WA009760107200110000
B1308205427791N00306262WA009770107600110000
B1308235427807N00306276WA009740107300110000
B1308265427799N00306289WA009770107400110000
B1308295427801N00306264WA009820108000110000
B1308325427815N00306249WA009830108100110000
B1308355427835N00306240WA009850108300110000
B1308385427855N00306234WA009860108600110000
B1308415427877N00306229WA009890108700110000
B1308445427898N00306224WA009900109000110000
B1308475427919N00306217WA009880108800110000
B1308505427942N00306207WA009880108900110000
B1308535427964N00306195WA009860108700110000
B1308565427985N00306183WA009890108900110000
B1308595428004N00306178WA009870108800110000
B1309025428024N00306170WA009860108600110000
B1309055428044N00306160WA009870108600110000
F130908020612141724253132
B1309085428065N00306150WA009880108700109000
B1309115428084N00306141WA009860108700109000
F13091402061214172425293132
B1309145428102N00306125WA009810108300110000
B1309175428119N00306108WA009760107800110000
B1309205428136N00306091WA009710107300110000
B1309235428154N00306076WA009640106700110000
F130926020612141724253132
B1309265428173N00306059WA009570106000109000
F13092902061214172425293132
B1309295428191N00306040WA009510105400110000
B1309325428209N00306027WA009480104900110000
B1309355428227N00306014WA009440104500110000
B1309385428244N00306002WA009410104200110000
B1309415428261N00305995WA009360103700110000
B1309445428279N00305988WA009310103200110000
B1309475428297N00305981WA009260102700110000
B1309505428315N00305975WA009190102100110000
B1309535428334N00305973WA009140101600110000
B1309565428353N00305971WA009100101200110000
B1309595428372N00305966WA009040100600110000
B1310025428391N00305960WA008980100100110000
B1310055428410N00305953WA008920099500110000
B1310085428429N00305943WA008870099000110000
B1310115428447N00305930WA008830098500110000
B1310145428464N00305920WA008790098100110000
B1310175428482N00305909WA008730097500110000
B1310205428499N00305901WA008660096800110000
F131023020612141724253132
B1310235428517N00305889WA008550095800109000
F13102602061214172425293132
B1310265428537N00305878WA008500095100110000
B1310295428556N00305868WA008430094500110000
F131032020612141724253132
B1310325428576N00305852WA008410094200109000
F13103502061214172425293132
B1310355428594N00305840WA008390094000110000
B1310385428611N00305826WA008410094200110000
B1310415428623N00305818WA008390094100110000
B1310445428638N00305807WA008390094100110000
B1310475428653N00305796WA008410094200110000
B1310505428665N00305787WA008420094300110000
B1310535428679N00305780WA008420094300110000
B1310565428695N00305783WA008380093900110000
B1310595428710N00305775WA008340093500110000
B1311025428714N00305756WA008340093300110000
B1311055428714N00305733WA008390093800110000
B1311085428716N00305712WA008410094100110000
B1311115428711N00305695WA008400094100110000
B1311145428703N00305692WA008390094000110000
B1311175428698N00305707WA008370093800110000
B1311205428705N00305730WA008330093300110000
B1311235428724N00305733WA008330093200110000
B1311265428740N00305721WA008380093700110000
B1311295428753N00305711WA008410094100110000
F131132061214172425293132
B1311325428768N00305699WA008430094300109000
F13113502061214172425293132
B1311355428785N00305708WA008370093800110000
B1311385428788N00305734WA008310093100110000
B1311415428776N00305738WA008330093100110000
B1311445428771N00305719WA008360093500110000
B1311475428768N00305703WA008390093800110000
B1311505428770N00305682WA008410094000110000
B1311535428774N00305660WA008410094100110000
B1311565428788N00305636WA008450094300110000
B1311595428803N00305620WA008500094800110000
B1312025428816N00305601WA008540095200110000
B1312055428823N00305581WA008570095500110000
B1312085428823N00305563WA008570095600110000
B1312115428816N00305568WA008580095600110000
B1312145428823N00305592WA008610095900110000
B1312175428842N00305601WA008660096400110000
B1312205428858N00305588WA008690096700110000
B1312235428864N00305567WA008700096800110000
B1312265428858N00305558WA008730097000110000
B1312295428856N00305574WA008780097600110000
F131232020612142425293132
B1312325428860N00305592WA008820098000109000
B1312355428868N00305612WA008860098400109000
B1312385428884N00305620WA008880098600109000
B1312415428900N00305607WA008910099000109000
B1312445428905N00305585WA008920099100109000
B1312475428899N00305569WA008930099200109000
B1312505428891N00305570WA008960099400109000
B1312535428888N00305586WA009000099800109000
B1312565428895N00305603WA009030100100109000
B1312595428912N00305605WA009040100400109000
B1313025428923N00305583WA009070100800109000
B1313055428921N00305561WA009100101000109000
B1313085428912N00305558WA009120101200109000
B1313115428906N00305574WA009170101600109000
B1313145428907N00305591WA009190102000109000
B1313175428920N00305607WA009230102200109000
B1313205428935N00305601WA009270102600109000
B1313235428945N00305579WA009280102600109000
B1313265428938N00305559WA009300102700109000
B1313295428931N00305568WA009340103200109000
B1313325428934N00305584WA009350103300109000
B1313355428945N00305599WA009350103300109000
B1313385428961N00305595WA009330103200109000
B1313415428972N00305572WA009320103000109000
B1313445428973N00305545WA009330103100109000
B1313475428964N00305528WA009350103200109000
B1313505428954N00305531WA009380103500109000
B1313535428951N00305547WA009390103700109000
F1313560206121424293132
B1313565428957N00305565WA009410103900108000
F131359020612142425293132
B1313595428968N00305578WA009400103900109000
B1314025428981N00305582WA009390103800109000
B1314055428995N00305577WA009330103300109000
B1314085429012N00305567WA009290102900109000
B1314115429029N00305563WA009290102800109000
B1314145429045N00305558WA009270102600109000
B1314175429062N00305554WA009270102600109000
F1314200206121424253132
B1314205429078N00305545WA009260102500108000
F131423020612142425293132
B1314235429097N00305527WA009280102700109000
B1314265429113N00305516WA009290102800109000
B1314295429127N00305506WA009290102900109000
B1314325429141N00305492WA009270102700109000
B1314355429157N00305475WA009280102700109000
B1314385429173N00305463WA009260102700109000
B1314415429189N00305453WA009220102400109000
B1314445429206N00305440WA009210102200109000
B1314475429220N00305427WA009190102000109000
B1314505429233N00305411WA009150101700109000
B1314535429247N00305390WA009100101200109000
B1314565429262N00305368WA009040100600109000
B1314595429279N00305344WA009020100300109000
B1315025429296N00305325WA009010100100109000
B1315055429312N00305306WA008970099800109000
B1315085429328N00305290WA008950099600109000
B1315115429346N00305274WA008930099300109000
B1315145429363N00305255WA008940099400109000
B1315175429378N00305238WA008930099300109000
B1315205429393N00305220WA008890099000109000
B1315235429410N00305201WA008860098600109000
B1315265429422N00305177WA008810098300109000
B1315295429435N00305153WA008760097800109000
B1315325429448N00305134WA008740097600109000
B1315355429460N00305116WA008690097100109000
B1315385429472N00305095WA008640096600109000
B1315415429487N00305078WA008600096100109000
B1315445429503N00305059WA008560095700109000
B1315475429519N00305041WA008510095200109000
B1315505429534N00305019WA008470094900109000
B1315535429549N00304999WA008440094600109000
B1315565429563N00304980WA008450094500109000
B1315595429577N00304961WA008450094500109000
B1316025429591N00304942WA008470094700109000
B1316055429603N00304925WA008490094900109000
B1316085429614N00304909WA008480094800109000
B1316115429616N00304888WA008480094800109000
B1316145429609N00304888WA008480094700109000
B1316175429605N00304905WA008470094700109000
B1316205429614N00304929WA008440094400109000
B1316235429633N00304940WA008430094300109000
B1316265429650N00304931WA008390094100109000
B1316295429669N00304912WA008370093700109000
B1316325429684N00304890WA008360093600109000
B1316355429695N00304866WA008350093400109000
B1316385429706N00304842WA008360093400109000
B1316415429717N00304822WA008320093200109000
B1316445429724N00304795WA008290092800109000
B1316475429730N00304768WA008300092800109000
B1316505429740N00304744WA008290092700109000
B1316535429750N00304719WA008290092700109000
B1316565429760N00304693WA008270092500109000
B1316595429770N00304665WA008300092800109000
B1317025429779N00304639WA008300092800109000
B1317055429788N00304615WA008310093000109000
B1317085429799N00304593WA008280092800109000
B1317115429812N00304569WA008270092600109000
B1317145429827N00304546WA008280092700109000
B1317175429844N00304529WA008300092900109000
B1317205429860N00304515WA008330093300109000
B1317235429868N00304493WA008330093400109000
B1317265429866N00304474WA008330093300109000
B1317295429857N00304478WA008360093600109000
B1317325429860N00304496WA008400094000109000
B1317355429864N00304511WA008420094300109000
B1317385429862N00304521WA008400094100109000
B1317415429853N00304512WA008420094300109000
B1317445429861N00304482WA008450094500109000
B1317475429879N00304471WA008490095000109000
F1317500212142425293132
B1317505429892N00304480WA008490095100108000
F131753020612142425293132
B1317535429888N00304492WA008460094700109000
B1317565429881N00304470WA008500095000109000
B1317595429885N00304440WA008530095400109000
B1318025429884N00304414WA008550095600109000
B1318055429887N00304388WA008580095900109000
B1318085429890N00304362WA008580095900109000
B1318115429902N00304345WA008540095600109000
B1318145429909N00304361WA008500095000109000
B1318175429898N00304371WA008520095300109000
B1318205429889N00304369WA008500095400109000
B1318235429880N00304360WA008430094800109000
B1318265429871N00304347WA008350093900109000
B1318295429867N00304326WA008250092900109000
B1318325429885N00304313WA008190092100109000
B1318355429900N00304323WA008160092000109000
B1318385429916N00304324WA008110091500109000
B1318415429933N00304328WA008100091200109000
B1318445429951N00304329WA008110091300109000
B1318475429966N00304319WA008100091300109000
B1318505429981N00304305WA008060091000109000
B1318535430000N00304286WA008040090700109000
B1318565430015N00304269WA007980090300109000
B1318595430035N00304254WA007980090000109000
B1319025430051N00304246WA007970090000109000
B1319055430070N00304238WA007950089800109000
B1319085430089N00304228WA007910089500109000
B1319115430110N00304216WA007900089200109000
B1319145430130N00304209WA007890089200109000
B1319175430151N00304199WA007860088900109000
B1319205430171N00304187WA007830088600109000
B1319235430191N00304177WA007780088200109000
B1319265430211N00304168WA007750087800109000
B1319295430233N00304157WA007760087600109000
B1319325430251N00304147WA007780087900109000
B1319355430264N00304133WA007750087700109000
B1319385430276N00304111WA007730087400109000
B1319415430289N00304086WA007780087600109000
B1319445430301N00304065WA007860088200109000
B1319475430315N00304057WA007890088600109000
B1319505430322N00304079WA007900088700109000
B1319535430310N00304075WA007960089300109000
B1319565430303N00304069WA008020090000109000
B1319595430297N00304058WA008060090400109000
B1320025430307N00304036WA008080090700109000
B1320055430321N00304055WA008110090800109000
B1320085430310N00304063WA008190091700109000
B1320115430302N00304064WA008260092500109000
B1320145430296N00304060WA008280092700109000
B1320175430299N00304034WA008280092800109000
B1320205430316N00304021WA008310093000109000
B1320235430333N00304025WA008330093200109000
B1320265430344N00304046WA008350093300109000
B1320295430336N00304059WA008410093900109000
B1320325430328N00304057WA008450094500109000
B1320355430320N00304046WA008470094700109000
B1320385430324N00304021WA008480094800109000
B1320415430342N00304012WA008470094700109000
B1320445430353N00304031WA008460094600109000
B1320475430342N00304041WA008510095100109000
B1320505430332N00304037WA008550095500109000
B1320535430323N00304033WA008590095900109000
B1320565430315N00304026WA008620096300109000
B1320595430311N00304007WA008620096300109000
B1321025430328N00303985WA008610096100109000
B1321055430344N00303999WA008650096500109000
B1321085430354N00304013WA008650096700109000
B1321115430354N00304030WA008640096500109000
B1321145430344N00304023WA008650096600109000
B1321175430343N00303998WA008660096800109000
B1321205430354N00303975WA008650096600109000
B1321235430373N00303967WA008640096500109000
B1321265430385N00303983WA008630096400109000
B1321295430381N00303998WA008640096400109000
B1321325430373N00304002WA008640096500109000
B1321355430366N00304008WA008630096500109000
B1321385430358N00304012WA008630096400109000
B1321415430349N00304016WA008630096400109000
B1321445430340N00304019WA008600096100109000
B1321475430330N00304021WA008570095800109000
B1321505430321N00304012WA008540095600109000
B1321535430320N00303983WA008550095400109000
B1321565430326N00303957WA008590096000109000
B1321595430331N00303932WA008570095800109000
B1322025430334N00303902WA008610096200109000
B1322055430338N00303876WA008630096400109000
B1322085430340N00303852WA008610096400109000
B1322115430333N00303844WA008600096100109000
B1322145430329N00303859WA008590096100109000
B1322175430339N00303876WA008560095800109000
B1322205430360N00303880WA008570095700109000
B1322235430376N00303869WA008580096000109000
B1322265430388N00303847WA008580095900109000
B1322295430398N00303827WA008560095800109000
B1322325430408N00303802WA008540095600109000
B1322355430420N00303777WA008560095800109000
B1322385430429N00303756WA008500095400109000
B1322415430442N00303733WA008460095000109000
B1322445430455N00303710WA008470094900109000
B1322475430467N00303695WA008530095300109000
B1322505430478N00303683WA008560095700109000
B1322535430496N00303683WA008520095400109000
B1322565430499N00303713WA008520095300109000
B1322595430491N00303721WA008530095500109000
B1323025430483N00303730WA008500095200109000
B1323055430474N00303728WA008480095000109000
B1323085430471N00303707WA008430094400109000
B1323115430480N00303680WA008460094500109000
B1323145430493N00303663WA008550095400109000
B1323175430507N00303657WA008560095900109000
B1323205430522N00303674WA008550095800109000
B1323235430516N00303688WA008590096300109000
B1323265430512N00303672WA008680097100109000
B1323295430511N00303658WA008730097700109000
B1323325430523N00303649WA008720097600109000
B1323355430531N00303676WA008750097800109000
B1323385430523N00303690WA008830098700109000
B1323415430519N00303700WA008840098900109000
B1323445430510N00303701WA008820098600109000
B1323475430509N00303676WA008820098400109000
B1323505430525N00303661WA008860098800109000
B1323535430542N00303662WA008890099200109000
B1323565430558N00303652WA008940099500109000
B1323595430573N00303651WA008960099900109000
B1324025430581N00303677WA008970099900109000
B1324055430570N00303682WA008960099800109000
B1324085430578N00303659WA008970099700109000
B1324115430596N00303669WA009010100200109000
B1324145430598N00303690WA009070100700109000
B1324175430596N00303703WA009060100900109000
B1324205430589N00303694WA009030100500109000
B1324235430598N00303672WA009050100600109000
B1324265430615N00303669WA009090101100109000
B1324295430631N00303663WA009130101400109000
B1324325430646N00303658WA009140101700109000
B1324355430661N00303668WA009120101400109000
B1324385430660N00303686WA009100101200109000
B1324415430651N00303679WA009090101100109000
B1324445430650N00303654WA009130101300109000
B1324475430655N00303633WA009130101500109000
B1324505430662N00303609WA009120101400109000
B1324535430669N00303586WA009090101100109000
B1324565430677N00303558WA009080101000109000
B1324595430683N00303531WA009080101000109000
B1325025430691N00303506WA009070100900109000
B1325055430698N00303483WA009030100700109000
B1325085430707N00303457WA009030100500109000
B1325115430715N00303436WA009040100600109000
B1325145430723N00303413WA009030100500109000
B1325175430732N00303393WA009020100400109000
B1325205430742N00303375WA008990100100109000
B1325235430755N00303355WA008970099900109000
B1325265430765N00303333WA008950099600109000
B1325295430774N00303310WA008930099400109000
B1325325430784N00303288WA008890099200109000
B1325355430794N00303263WA008850098800109000
B1325385430800N00303238WA008810098300109000
B1325415430808N00303211WA008820098300109000
B1325445430817N00303182WA008840098400109000
B1325475430829N00303155WA008850098700109000
B1325505430838N00303129WA008810098400109000
B1325535430844N00303102WA008740097800109000
B1325565430853N00303074WA008690097200109000
B1325595430860N00303046WA008660096800109000
B1326025430868N00303016WA008610096300109000
B1326055430875N00302986WA008540095700109000
B1326085430884N00302956WA008490095000109000
B1326115430893N00302929WA008450094600109000
B1326145430904N00302902WA008380093900109000
B1326175430916N00302874WA008310093300109000
B1326205430927N00302847WA008240092700109000
F13262302030612142425293132
B1326235430941N00302822WA008160091800110000
B1326265430957N00302792WA008080091100110000
B1326295430976N00302762WA008010090400110000
B1326325430994N00302733WA007980090000110000
B1326355431011N00302709WA007930089500110000
B1326385431029N00302682WA007880089100110000
B1326415431046N00302659WA007810088500110000
B1326445431063N00302630WA007780088100110000
B1326475431078N00302606WA007770088000110000
B1326505431092N00302583WA007710087600110000
B1326535431107N00302557WA007690087300110000
B1326565431121N00302535WA007610086700110000
B1326595431138N00302515WA007560086100110000
B1327025431154N00302495WA007520085600110000
B1327055431168N00302471WA007490085400110000
B1327085431181N00302449WA007440084900110000
B1327115431195N00302427WA007420084600110000
B1327145431210N00302407WA007380084200110000
B1327175431221N00302384WA007410084300110000
B1327205431230N00302368WA007420084400110000
B1327235431240N00302351WA007360084100110000
B1327265431253N00302338WA007300083400110000
B1327295431268N00302327WA007280083100110000
B1327325431285N00302317WA007290083000110000
B1327355431306N00302309WA007340083400110000
B1327385431325N00302307WA007450084400110000
B1327415431343N00302304WA007550085500110000
B1327445431360N00302300WA007650086600110000
B1327475431378N00302303WA007710087300110000
B1327505431383N00302325WA007700087100110000
B1327535431373N00302327WA007750087600110000
B1327565431365N00302322WA007840088300110000
B1327595431358N00302322WA007920089000110000
F132802020612142425293132
B1328025431351N00302321WA008010089900109000
F13280502030612142425293132
B1328055431342N00302324WA008090090700110000
B1328085431333N00302324WA008120091200110000
B1328115431324N00302313WA008100091100110000
B1328145431323N00302289WA008060090700110000
B1328175431329N00302264WA008030090300110000
F132820020306121424252931
B1328205431345N00302243WA008080090400109000
F13282302030612142425293132
B1328235431362N00302242WA008230092000110000
B1328265431375N00302245WA008330093100110000
B1328295431377N00302263WA008390093700110000
B1328325431365N00302251WA008480094500110000
B1328355431375N00302224WA008590095800110000
B1328385431385N00302240WA008700096800110000
B1328415431376N00302244WA008790097900110000
B1328445431372N00302214WA008870098500110000
B1328475431387N00302208WA008910098800110000
B1328505431382N00302225WA009010099900110000
B1328535431370N00302202WA009080100700110000
B1328565431374N00302177WA009090101000110000
B1328595431390N00302174WA009120101300110000
B1329025431402N00302193WA009200101900110000
B1329055431414N00302205WA009330103100110000
B1329085431417N00302218WA009410104000110000
B1329115431406N00302213WA009470104500110000
B1329145431413N00302183WA009520104900110000
B1329175431427N00302199WA009620105800110000
B1329205431419N00302203WA009700106900110000
B1329235431408N00302199WA009790107700110000
B1329265431398N00302180WA009820108100110000
B1329295431409N00302149WA009850108400110000
B1329325431424N00302161WA009950109100110000
B1329355431429N00302177WA010060110500110000
B1329385431429N00302191WA010140111300110000
B1329415431419N00302190WA010180111800110000
B1329445431417N00302162WA010250112300110000
B1329475431429N00302149WA010310112900110000
B1329505431441N00302154WA010390113700110000
B1329535431438N00302168WA010450114200110000
B1329565431426N00302157WA010520115000110000
B1329595431427N00302126WA010580115600110000
B1330025431437N00302106WA010630116100110000
B1330055431452N00302103WA010650116400110000
B1330085431453N00302119WA010670116400110000
B1330115431441N00302121WA010740117100110000
B1330145431430N00302116WA010780117600110000
B1330175431427N00302086WA010800117700110000
B1330205431443N00302072WA010830118100110000
B1330235431453N00302087WA010880118500110000
B1330265431446N00302096WA010930119000110000
B1330295431435N00302082WA010990119600110000
B1330325431435N00302056WA011020120000110000
B1330355431448N00302039WA011050120200110000
B1330385431463N00302043WA011080120500110000
B1330415431468N00302056WA011120120800110000
B1330445431467N00302066WA011180121300110000
B1330475431457N00302065WA011220121800110000
B1330505431446N00302053WA011260122100110000
B1330535431444N00302025WA011280122400110000
B1330565431457N00302003WA011310122600110000
B1330595431472N00302003WA011320122800110000
B1331025431476N00302018WA011340122900110000
B1331055431466N00302025WA011380123300110000
B1331085431455N00302022WA011370123300110000
B1331115431444N00302005WA011340123000110000
B1331145431444N00301969WA011350123100110000
B1331175431456N00301945WA011360123200110000
B1331205431468N00301929WA011390123500110000
B1331235431480N00301921WA011350123300110000
B1331265431495N00301917WA011320123000110000
B1331295431508N00301922WA011300122700110000
B1331325431523N00301920WA011290122600110000
B1331355431539N00301915WA011270122400110000
B1331385431559N00301911WA011310122500110000
F133141020306121425293132
B1331415431575N00301898WA011360123100109000
F13314402030612142425293132
B1331445431589N00301895WA011380123400110000
B1331475431592N00301914WA011430123800110000
B1331505431581N00301915WA011470124300110000
B1331535431579N00301886WA011490124500110000
B1331565431593N00301862WA011530124800110000
B1331595431609N00301865WA011570125300110000
B1332025431609N00301881WA011600125500110000
B1332055431598N00301875WA011630125800110000
B1332085431598N00301844WA011660126100110000
B1332115431613N00301824WA011680126300110000
B1332145431626N00301833WA011700126500110000
F133217020306121424293132
B1332175431621N00301844WA011750126900109000
F13322002030612142425293132
B1332205431612N00301834WA011790127300110000
B1332235431609N00301807WA011790127400110000
B1332265431624N00301786WA011810127500110000
B1332295431638N00301793WA011840127900110000
B1332325431643N00301808WA011890128300110000
B1332355431642N00301821WA011910128600110000
B1332385431632N00301820WA011920128700110000
B1332415431627N00301793WA011930128700110000
B1332445431635N00301765WA011940128800110000
B1332475431650N00301748WA011950128900110000
B1332505431666N00301749WA011960129100110000
B1332535431675N00301763WA011970129200110000
B1332565431673N00301782WA012060129900110000
B1332595431671N00301794WA012120130700110000
B1333025431664N00301804WA012220131300110000
B1333055431654N00301795WA012280132000110000
B1333085431653N00301764WA012310132500110000
F133311020312142425293132
B1333115431667N00301756WA012300132300109000
F13331402030612142425293132
B1333145431667N00301776WA012360132800110000
B1333175431654N00301771WA012450133700110000
B1333205431645N00301762WA012500134300110000
B1333235431639N00301736WA012490134300110000
B1333265431651N00301715WA012480134200110000
B1333295431663N00301726WA012500134400110000
B1333325431664N00301744WA012570135000110000
B1333355431666N00301754WA012640135700110000
B1333385431666N00301762WA012650136000110000
B1333415431656N00301758WA012640135800110000
B1333445431651N00301727WA012680136100110000
B1333475431662N00301703WA012740136800110000
B1333505431676N00301696WA012780137200110000
B1333535431689N00301700WA012790137300110000
B1333565431689N00301714WA012830137700110000
F133359020612142425293132
B1333595431681N00301717WA012870138000109000
F133402020306121424252932
B1334025431672N00301701WA012880138100109000
F13340502030612142425293132
B1334055431675N00301673WA012930138500110000
B1334085431689N00301659WA012970138900110000
B1334115431704N00301662WA013000139200110000
B1334145431709N00301680WA013040139700110000
B1334175431703N00301691WA013060140000110000
B1334205431691N00301688WA013070140100110000
B1334235431688N00301662WA013070140100110000
B1334265431697N00301635WA013080140100110000
B1334295431713N00301625WA013110140400110000
B1334325431730N00301626WA013160141000110000
B1334355431747N00301632WA013210141500110000
B1334385431756N00301645WA013220141700110000
B1334415431754N00301660WA013220141800110000
B1334445431742N00301663WA013200141600110000
B1334475431732N00301646WA013180141300110000
B1334505431732N00301616WA013180141200110000
B1334535431741N00301588WA013220141500110000
B1334565431757N00301568WA013280142100110000
B1334595431772N00301551WA013330142700110000
B1335025431788N00301550WA013340142900110000
B1335055431795N00301568WA013330142800110000
B1335085431787N00301581WA013320142800110000
B1335115431780N00301559WA013340142900110000
B1335145431789N00301529WA013380143200110000
B1335175431803N00301511WA013410143700110000
B1335205431819N00301503WA013410143700110000
B1335235431837N00301501WA013410143700110000
B1335265431856N00301497WA013430143900110000
B1335295431873N00301488WA013400143800110000
B1335325431892N00301479WA013370143400110000
B1335355431912N00301474WA013340143200110000
B1335385431930N00301471WA013300142700110000
B1335415431949N00301468WA013260142300110000
B1335445431967N00301463WA013200141700110000
B1335475431982N00301455WA013150141200110000
B1335505432000N00301447WA013100140700110000
B1335535432015N00301437WA013020139900110000
B1335565432034N00301428WA012890138600110000
B1335595432055N00301422WA012830137700110000
B1336025432073N00301415WA012770137100110000
B1336055432094N00301406WA012690136300110000
B1336085432114N00301398WA012640135800110000
B1336115432134N00301391WA012540134900110000
B1336145432159N00301385WA012470134000110000
B1336175432181N00301375WA012410133400110000
B1336205432204N00301368WA012320132500110000
B1336235432226N00301359WA012300132200110000
B1336265432245N00301349WA012220131600110000
B1336295432268N00301340WA012130130800110000
B1336325432288N00301329WA012080130400110000
B1336355432308N00301317WA012000129600110000
B1336385432330N00301305WA011940129000110000
B1336415432350N00301296WA011880128400110000
B1336445432370N00301288WA011810127700110000
B1336475432391N00301278WA011750127000110000
B1336505432411N00301271WA011670126300110000
B1336535432432N00301261WA011590125600110000
B1336565432453N00301253WA011540125000110000
B1336595432473N00301242WA011490124500110000
B1337025432492N00301233WA011430124000110000
B1337055432511N00301222WA011360123300110000
B1337085432531N00301211WA011300122700110000
B1337115432549N00301196WA011250122100110000
B1337145432569N00301183WA011200121500110000
B1337175432588N00301169WA011150120900110000
F133720020306121425293132
B1337205432608N00301155WA011080120300109000
B1337235432628N00301141WA011010119600109000
F13372602030612142425293132
B1337265432648N00301129WA010950119000110000
B1337295432668N00301119WA010890118400110000
B1337325432689N00301103WA010850118000110000
B1337355432710N00301089WA010800117600110000
B1337385432734N00301070WA010770117100110000
B1337395432742N00301065WA010790117100110000
E133740TPC
B1337405432750N00301060WA010800117200110000
B1337415432757N00301056WA010830117400110000
B1337425432764N00301050WA010860117700110000
B1337435432769N00301046WA010890118000110000
B1337445432773N00301042WA010910118200110000
B1337455432777N00301040WA010930118400110000
B1337465432780N00301039WA010940118500110000
B1337475432783N00301039WA010950118500110000
B1337505432790N00301047WA010950118600110000
B1337535432784N00301063WA010950118700110000
B1337565432780N00301078WA010940118600110000
B1337595432778N00301099WA010960118700110000
B1338025432778N00301112WA010940118700110000
B1338055432775N00301128WA010880118200110000
B1338085432770N00301145WA010850117900110000
B1338115432761N00301161WA010760117100110000
B1338145432753N00301184WA010690116400110000
B1338175432746N00301206WA010600115700110000
B1338205432738N00301230WA010520114900110000
B1338235432729N00301253WA010440114000110000
B1338265432720N00301277WA010370113300110000
B1338295432710N00301301WA010300112600110000
B1338325432700N00301324WA010210111800110000
B1338355432689N00301346WA010130111000110000
B1338385432678N00301367WA010040110200110000
B1338415432668N00301389WA009980109500110000
B1338445432659N00301412WA009900108800110000
B1338475432650N00301435WA009820108000110000
B1338505432644N00301459WA009750107300110000
B1338535432639N00301483WA009670106500110000
B1338565432636N00301509WA009590105700110000
B1338595432631N00301533WA009510105000110000
B1339025432626N00301558WA009430104300110000
B1339055432620N00301581WA009370103600110000
B1339085432615N00301603WA009290102800110000
B1339115432609N00301627WA009220102100110000
B1339145432603N00301648WA009190101800110000
B1339175432601N00301668WA009110101100110000
B1339205432594N00301694WA009040100400110000
B1339235432587N00301719WA009030100200110000
B1339265432580N00301741WA009010100100110000
B1339295432572N00301765WA008990099900110000
B1339325432567N00301790WA009000100000110000
B1339355432561N00301815WA009000100000110000
B1339385432555N00301842WA009000100100110000
B1339415432550N00301867WA009050100500110000
B1339445432547N00301893WA009060100800110000
B1339475432543N00301917WA009020100600110000
B1339505432538N00301944WA008980100200110000
F133953020312142425293132
B1339535432533N00301970WA008970100000109000
F13395602030612142425293132
B1339565432527N00301995WA008970099900110000
B1339595432521N00302017WA008980100000110000
B1340025432513N00302037WA008980100000110000
B1340055432503N00302054WA008940099700110000
B1340085432494N00302076WA008910099400110000
B1340115432484N00302095WA008860099000110000
B1340145432473N00302116WA008800098400110000
B1340175432462N00302139WA008770097900110000
B1340205432452N00302160WA008750097700110000
B1340235432442N00302180WA008680097100110000
B1340265432430N00302200WA008640096600110000
B1340295432418N00302218WA008590096100110000
B1340325432405N00302235WA008550095700110000
B1340355432393N00302252WA008510095200110000
B1340385432382N00302270WA008510095000110000
B1340415432373N00302286WA008510095000110000
B1340445432363N00302299WA008510095100110000
B1340475432351N00302309WA008500095000110000
B1340505432338N00302319WA008460094600110000
B1340535432324N00302328WA008460094600110000
B1340565432311N00302334WA008400094100110000
B1340595432298N00302343WA008380093800110000
B1341025432285N00302346WA008330093400110000
B1341055432271N00302349WA008290092900110000
B1341085432258N00302347WA008240092500110000
B1341115432243N00302343WA008160091600110000
B1341145432226N00302340WA008140091200110000
B1341175432213N00302339WA008120091100110000
B1341205432199N00302335WA008060090500110000
B1341235432184N00302334WA008040090300110000
B1341265432171N00302335WA007970089700110000
B1341295432154N00302335WA007910089100110000
B1341325432140N00302339WA007840088400110000
B1341355432125N00302342WA007770087800110000
B1341385432108N00302343WA007720087400110000
B1341415432092N00302341WA007680086900110000
B1341445432076N00302336WA007640086500110000
B1341475432060N00302334WA007550085700110000
B1341505432042N00302331WA007500085000110000
B1341535432027N00302327WA007450084600110000
B1341565432013N00302320WA007410084100110000
B1341595431999N00302317WA007400083900110000
F134202020306122425293132
B1342025431985N00302316WA007420084100109000
F13420502030612142425293132
B1342055431975N00302320WA007470084500110000
B1342085431967N00302321WA007510085100110000
B1342115431962N00302321WA007450085000110000
B1342145431952N00302323WA007420084500110000
B1342175431944N00302320WA007370084200110000
B1342205431934N00302317WA007290083400110000
B1342235431925N00302314WA007230082900110000
B1342265431915N00302316WA007170082100110000
B1342295431904N00302316WA007140081800110000
B1342325431892N00302321WA007080081100110000
B1342355431878N00302323WA007070081000110000
B1342385431863N00302325WA007060080800110000
B1342415431855N00302329WA007050080800110000
B1342445431846N00302332WA006980080200110000
B1342475431833N00302333WA006920079600110000
B1342505431820N00302335WA006910079400110000
B1342535431808N00302328WA006890079300110000
B1342565431796N00302323WA006860078900110000
B1342595431784N00302313WA006850078800110000
B1343025431772N00302302WA006840078600110000
B1343055431761N00302293WA006820078500110000
B1343085431750N00302279WA006790078200110000
B1343115431739N00302263WA006820078200110000
B1343145431732N00302250WA006890078800110000
B1343175431728N00302240WA006890079000110000
B1343205431722N00302227WA006860078800110000
B1343235431713N00302212WA006860078700110000
F134326020306121424252932
B1343265431705N00302197WA006840078700109000
F13432902030612142425293132
B1343295431696N00302182WA006790078300110000
B1343325431684N00302171WA006760077900110000
B1343355431674N00302163WA006780078000110000
B1343385431665N00302161WA006770077900110000
B1343415431656N00302159WA006750077800110000
B1343445431644N00302156WA006740077600110000
B1343475431633N00302153WA006730077600110000
B1343505431622N00302153WA006730077500110000
B1343535431613N00302151WA006700077200110000
B1343565431600N00302150WA006670076900110000
B1343595431585N00302147WA006680077000110000
F134402020306121424252932
B1344025431571N00302142WA006730077300109000
F134405020612142425293132
B1344055431562N00302135WA006760077800109000
F13440802030612142425293132
B1344085431554N00302122WA006720077500110000
B1344115431544N00302100WA006710077500110000
B1344145431535N00302084WA006650077000110000
B1344175431525N00302068WA006570076100110000
B1344205431513N00302062WA006520075500110000
B1344235431506N00302066WA006400074600110000
B1344265431494N00302069WA006330073800110000
F134429020612142425293132
B1344295431486N00302074WA006240073000109000
B1344325431472N00302080WA006150072000109000
F13443502030612142425293132
B1344355431458N00302089WA006130071700110000
F134438020612142425293132
B1344385431445N00302094WA006130071500109000
F13444102030612142425293132
B1344415431430N00302098WA006160071800110000
F134444020306121424252932
B1344445431417N00302103WA006180072100109000
F13444702030612142425293132
B1344475431403N00302097WA006190072200110000
B1344505431389N00302090WA006170072200110000
B1344535431375N00302089WA006110071800110000
B1344565431361N00302087WA006050071200110000
B1344595431350N00302082WA005980070500110000
B1345025431339N00302077WA005890069700110000
B1345055431327N00302073WA005800068700110000
F134508020612142425293132
B1345085431316N00302076WA005700067600109000
F13451102030612142425293132
B1345115431302N00302083WA005670067100110000
B1345145431290N00302083WA005650066900110000
B1345175431278N00302076WA005620066700110000
B1345205431266N00302066WA005590066400110000
B1345235431253N00302055WA005570066200110000
B1345265431239N00302042WA005580066400110000
B1345295431229N00302040WA005640067100110000
B1345325431223N00302034WA005670067500110000
B1345355431217N00302029WA005690067800110000
B1345385431210N00302030WA005710068000110000
B1345415431213N00302052WA005760068500110000
B1345445431226N00302064WA005800069200110000
B1345475431232N00302081WA005810069300110000
B1345505431223N00302082WA005790069000110000
B1345535431220N00302056WA005850069400110000
B1345565431223N00302032WA005910069800110000
B1345595431221N00302009WA005890070100110000
B1346025431212N00301996WA005810069300110000
B1346055431203N00302012WA005730068400110000
B1346085431213N00302035WA005690067800110000
B1346115431224N00302052WA005640067200110000
B1346145431217N00302068WA005580066600110000
B1346175431214N00302046WA005590066600110000
B1346205431207N00302035WA005570066300110000
B1346235431198N00302009WA005570066200110000
B1346265431190N00301987WA005610066400110000
B1346295431184N00301968WA005620066500110000
B1346325431177N00301948WA005640066800110000
F134635020306121424252932
B1346355431168N00301933WA005700067300109000
F13463802030612142425293132
B1346385431161N00301917WA005730067700110000
B1346415431154N00301908WA005700067700110000
B1346445431143N00301909WA005640067100110000
B1346475431131N00301905WA005600066600110000
B1346505431118N00301906WA005600066600110000
F134653020612142425293132
B1346535431106N00301907WA005610066700109000
F13465602030612142425293132
B1346565431095N00301903WA005560066400110000
B1346595431081N00301897WA005510065700110000
B1347025431068N00301887WA005480065400110000
B1347055431056N00301875WA005430064800110000
B1347085431042N00301867WA005380064300110000
B1347115431028N00301866WA005360063900110000
B1347145431014N00301863WA005380064000110000
B1347175431006N00301856WA005340063600110000
B1347205430993N00301846WA005290063000110000
B1347235430978N00301832WA005260062800110000
B1347265430964N00301827WA005250062600110000
B1347295430952N00301833WA005290062900110000
B1347325430943N00301837WA005350063300110000
B1347355430935N00301838WA005450064300110000
B1347385430939N00301851WA005500064700110000
B1347415430958N00301843WA005570065500110000
B1347445430963N00301810WA005610066000110000
B1347475430949N00301798WA005640066100110000
B1347505430943N00301809WA005770067400110000
B1347535430947N00301818WA005850068200110000
B1347565430957N00301829WA005920069000110000
B1347595430972N00301809WA005970069600110000
B1348025430967N00301782WA006020070000110000
B1348055430963N00301793WA006110070900110000
B1348085430976N00301796WA006180071700110000
B1348115430989N00301776WA006230072100110000
B1348145430993N00301748WA006250072500110000
B1348175430982N00301734WA006260072600110000
B1348205430975N00301748WA006330073100110000
B1348235430974N00301762WA006450074200110000
B1348265430974N00301775WA006490074800110000
B1348295430972N00301791WA006570075600110000
B1348325430967N00301799WA006650076400110000
B1348355430961N00301801WA006690076900110000
B1348385430957N00301778WA006700076800110000
B1348415430976N00301761WA006770077500110000
B1348445430988N00301777WA006870078600110000
B1348475430993N00301790WA006880079200110000
B1348505430993N00301808WA006870079000110000
B1348535430986N00301791WA006890079100110000
B1348565430994N00301765WA007010080200110000
B1348595430997N00301742WA007100081200110000
B1349025430993N00301724WA007170081900110000
B1349055430988N00301730WA007210082300110000
B1349085430989N00301747WA007250082700110000
